:020000040000FA
:1000000080050020AD010000B1010000050B0000DB
:1000100000000000000000000000000000000000E0
:10002000000000000000000000000000B50100001A
:100030000000000000000000B70100001D250000C6
:1000400035210000BD2F000000000000000000006E
:100050000000000000000000BB01000000000000E4
:100060000000000000000000BB01000000000000D4
:10007000BB010000BB010000BB010000C103000088
:1000800075050000000000000000000000000000F6
:100090000000000000000000000000000000000060
:1000A000BB010000BB010000BB010000000000001C
:1000B000BB0100006D210000BB010000BB0100007E
:1000C00000F002F800F03EF80CA030C80838241800
:1000D0002D18A246671EAB4654465D46AC4201D180
:1000E00000F030F87E460F3E0FCCB6460126334274
:1000F00000D0FB1AA246AB463343184720570000F6
:1001000040570000103A02D378C878C1FAD8520795
:1001100001D330C830C101D504680C6070470000BD
:100120000023002400250026103A01D378C1FBD813
:10013000520700D330C100D50B6070471FB51FBDFB
:1001400010B510BD00F0F8F81146FFF7F7FF03F007
:100150004FFC00F010F903B4FFF7F2FF03BC00F00E
:1001600017F90000014801600148004724000640DB
:100170000103FF1F70B505460C46164602E00FCC82
:100180000FC5103E102EFAD2082E02D303CC03C5A1
:10019000083E042E07D301CC01C5361F03E02178A9
:1001A0002970641C6D1C761EF9D270BD064800478C
:1001B000FEE7FEE7FEE7FEE7FEE7FEE70348044949
:1001C000024A044B70470000C10000008003002079
:1001D0008005002080030020002203098B422CD3DD
:1001E000030A8B4211D300239C464EE003460B4387
:1001F0003CD4002243088B4231D303098B421CD3E9
:10020000030A8B4201D394463FE0C3098B4201D3DA
:10021000CB01C01A524183098B4201D38B01C01A12
:10022000524143098B4201D34B01C01A5241030989
:100230008B4201D30B01C01A5241C3088B4201D338
:10024000CB00C01A524183088B4201D38B00C01AE5
:10025000524143088B4201D34B00C01A5241411A0C
:1002600000D201465241104670475DE0CA0F00D0EF
:100270004942031000D34042534000229C460309E8
:100280008B422DD3030A8B4212D3FC22890112BA6E
:10029000030A8B420CD3890192118B4208D3890146
:1002A00092118B4204D389013AD0921100E089095E
:1002B000C3098B4201D3CB01C01A524183098B423F
:1002C00001D38B01C01A524143098B4201D34B0128
:1002D000C01A524103098B4201D30B01C01A52418B
:1002E000C3088B4201D3CB00C01A524183088B4212
:1002F00001D38B00C01A5241D9D243088B4201D39B
:100300004B00C01A5241411A00D201466346524185
:100310005B10104601D34042002B00D54942704784
:1003200063465B1000D3404201B50020C046C04682
:1003300002BD704770477047754600F025F8AE461D
:10034000050069465346C008C000854618B020B570
:10035000FFF734FF60BC00274908B6460026C0C539
:10036000C0C5C0C5C0C5C0C5C0C5C0C5C0C5403D6D
:1003700049008D46704710B50446C046C046204629
:10038000FFF7E9FE10BD0000004870472003002081
:1003900001491820ABBEFEE72600020070470000AE
:1003A000012080070068400840000121890708609B
:1003B0000020C0430149886270470000800000406F
:1003C000012080074069C007C00F00287ED0454843
:1003D000406AC007C00F0028F8D001204149886258
:1003E00041480068202108433F4908603F480078A1
:1003F000401CC0B23D490870042813D10020087089
:1004000039480068012108433749086008460068F8
:100410000221084334490860084600684021084327
:10042000314908603048006802210840002858D04F
:100430002D48006888432C4908602D480078401CEE
:10044000C0B22B49087002280DD100200870264840
:100450000068042108432449086008460068802198
:1004600008432149086023480078401CC0B2214954
:10047000087004280ED1002008701B48006808216D
:1004800008431949086008460068FF210131084304
:100490001549086018480078401CC0B21649087019
:1004A000082808D1002008700F480068012149027F
:1004B00008430D49086011480088401C81B20F486C
:1004C00001800F4800780830814200E009E008DB35
:1004D00000200A49088004480068102108430249A6
:1004E0000860704780000040540000207800002021
:1004F0007A0000207B0000207C0000207E0000208D
:100500000C00002010B5134800684021884340309B
:10051000104908602F20012189078860FA200862AD
:10052000032048610220086000BF012080070068A6
:10053000022108400028F8D148070068012108433B
:10054000890708600F2003F079F90F2003F08EF976
:1005500010BD000000E0054005480068400840006C
:10056000034908600020C043014980318862704718
:10057000002000400020C043234988620020224917
:10058000803948602148C078C862204800790863F3
:100590001E48407948631D48007808621B4840782F
:1005A00048621A488078886218488079164940392C
:1005B00048631648C07988631448007AC8631348B2
:1005C000407AC8601148807AC8621048C07A0863CF
:1005D0000E48007B88610D48407BC8610B48807BDA
:1005E00008620A48C07B48620848007C8862074865
:1005F000407C886004488038006840084000401C07
:10060000014980390860704780200040580100206F
:1006100033480068802188438030314908602F20AA
:1006200030498860FF202F498031086000202D4923
:10063000086248628862C862086348632949403199
:100640008861C8610862486288628860C860C86260
:10065000086348638863C86323482249803108627D
:10066000C8612048C0698914884340181D49C86181
:100670000846C0694914884340181A49C8610846A9
:10068000C0690914884340181649C86108460068C3
:1006900002218843801C1349086000BF114800688C
:1006A0008007C00F0028F9D10E48006840084000BC
:1006B000401C0C4908601020002805DBC206D20E41
:1006C00001219140094A116000BF1020002805DB7C
:1006D000C206D20E01219140054A116000BF704749
:1006E00000E00540002000403FCCFF0080E200E039
:1006F00000E100E0F8B506460D461746002401204B
:1007000000901DE0102D0AD9A101CA19A101881974
:10071000102100F019F8C0B20090103D09E0A101CD
:10072000CA19A1018819294600F00EF8C0B200903C
:100730000025601CC4B20098002801D00098F8BDC4
:10074000002DDFD10098FAE710B503461A4840683B
:100750000424A043184C60600120A060204603617F
:1007600000BF00E000BF14484068C007C00F002869
:10077000F8D105E0104C1068E06000BF121D491E62
:100780000029F7D10C488068402420430A4CA0601F
:1007900000BF00E000BF08484068C007C00F002845
:1007A000F8D10548406804242040002801D00120E9
:1007B00010BD0020FCE700000020064010B51348E3
:1007C0000078A1281CD11248406D0121C9020843BC
:1007D0000F4948650D4800790043002810D10846AC
:1007E000017C002003F0E2F8084800690121C903F8
:1007F0000843064908610121002002F05DFA10BD9E
:10080000002002F08DFA00BFF9E700009C010020F3
:10081000B001002010B514480078A1281ED113485B
:10082000406D012109030840002802D101200F4931
:1008300048740D480079012810DC0C48417C0020E8
:1008400003F0B4F8084800690121C90308430649C8
:1008500008610121002002F02FFA10BD002002F0F3
:100860005FFA00BFF9E700009C010020B001002002
:1008700010B51A480078A1282BD1184880680128A3
:1008800027D116480079002814D11448C0780128CF
:1008900002D100F04BF810BD1048C078022802D1F8
:1008A00000F06CF8F7E70D48C078032811D100F08C
:1008B00019F8F0E70948007901280AD10848407C76
:1008C000012806D10548C078012802D100F042F87D
:1008D000E1E7002002F024FA00BFDCE79C010020E1
:1008E000B001002010B50D48C078032810D10B4886
:1008F000007900280CD109488078002808D14020D0
:100900000749086007480849086002F0CBFE03E089
:100910000021084602F0D0F910BD00009C01002023
:10092000B400002008020020B000002010B5002014
:1009300006490860064800690121C90308430449C3
:1009400008610821002002F0B7F910BDB4000020B2
:100950009C01002010B50020064908600648006987
:100960000121C9030843044908610521002002F060
:10097000A3F910BDB40000209C01002010B5084868
:100980000178002003F012F8064800690121C9032C
:100990000843044908610121002002F08DF910BDCF
:1009A000B00100209C01002010B5114800782128DA
:1009B00019D10F4800690121090408430C49086155
:1009C0000C48406D0121C90208430A49486508489E
:1009D0000079012807DC0648C07808740021084621
:1009E00002F06AF910BD002002F09AF900BFF9E7A1
:1009F0009C010020B001002010B517480078212884
:100A000025D11648406D0121090308431349486563
:100A10001148007901281ADC0F488078002806D197
:100A20000846406D0321890288430C4948650A48FD
:100A300080780A494874084800690121090408437C
:100A4000054908610021084602F036F910BD002072
:100A500002F066F900BFF9E79C010020B001002018
:100A600010B515480078212811D1134800790028C5
:100A70000DD11148C078022802D100F02BF810BD2A
:100A80000D48C078032811D100F018F8F7E70A489C
:100A9000007821280AD108480079012806D10648A3
:100AA000C078022802D100F015F8E8E7002002F033
:100AB00037F900BFE3E700009C01002010B50120DA
:100AC000034988740021084602F0F6F810BD0000C2
:100AD000B001002010B5094800690121090408434C
:100AE000064908610648406D01214902084304494E
:100AF00048650021084602F0DFF810BD9C01002087
:100B0000B001002000BF00BF00BF00BF00BFBFF3A7
:100B10004F8F00BF00BF00BF06480749C86000BF35
:100B200000BF00BFBFF34F8F00BF00BF00BF00BFBB
:100B300000BFFDE70400FA0500ED00E030B5034614
:100B40000A46DC00264D6019002146E00478302575
:100B50002C40002C06D0102C0CD0202C1DD0302C7A
:100B600036D122E001248C401440002C01D0152401
:100B700004702EE001248C401440002C0AD004782C
:100B8000641E047004782407240F002C04D1602410
:100B9000047001E0002404701BE001248C40144028
:100BA000002C01D13824047013E001248C4014403F
:100BB000002C02D02024047009E00478641E047024
:100BC00004782407240F002C01D14024047000E095
:100BD00000BF00BF401C4C1CE1B20829B6DB30BD91
:100BE0005B00002070B504460D46600003490E5CB2
:100BF0002946304600F022FE70BD0000EE430000A2
:100C00001C4840680121C9028843401819494860BE
:100C100008460068C9148843401816490860084609
:100C20004068091588434018124948600846006822
:100C30000915884340180F4908600846406849155F
:100C4000884340180B4948600846006849158843A6
:100C500040180849086008464068891588434018CC
:100C600004494860084600688915884340180149CE
:100C70000860704700A004401A4840680121C9027A
:100C8000884340181749486008460068C9148843DB
:100C900014490860084640680915884340181149FE
:100CA000486008460068091588430E4908600846F0
:100CB00040684915884340180A494860084600685A
:100CC00049158843074908600846406889158843E4
:100CD000401804494860084600688915884301495E
:100CE0000860704700A00440194800681949096865
:100CF0004018194908600EE0154800681549086059
:100D000015480068124908600846006811490968DA
:100D1000401811490860104800780007000F0C497E
:100D200009780907090F8842E6D00B4800780007C8
:100D3000000F084909780907090F8842DCD00448E8
:100D40000068044908600448006801490860704769
:100D500004000020080000200000002030B50478C6
:100D6000002C04D004780B4D2D78641B04700C7893
:100D70009C4205D00C78074D2D7864190C7007E063
:100D80001478641C14701478032C01D1002414709E
:100D900030BD00000E00002010B5234909788429D9
:100DA00022DA2249C978224A1F4B1B78D25C514370
:100DB0000912204A11701D4909791D4A1A4B1B78E6
:100DC000D25C514309121C4A117018494979164ADC
:100DD00013781278521C144C2270154AD25C51437D
:100DE0000912164A11700CE000210F4A11701449C3
:100DF000897A0E4AD1701249C97A11711049097B5A
:100E0000517101200DE00B4909780E4A11540A492D
:100E100009780D4A1154094909780C4A1154411CAA
:100E2000C8B20628EFDB10BD4400002016000020E9
:100E3000244300002F00002030000020310000205B
:100E4000640200201D000020230000202900002053
:100E500000B500F08BF800BD10B525480078C0073C
:100E6000C00F002824D123480078012806D002288A
:100E70000AD003280ED0042818D111E00022114610
:100E8000FF2000F0E3F912E0FF220021084600F005
:100E9000DDF90CE00022FF21104600F0D7F906E052
:100EA000FF221146104600F0D1F900E000BF04E037
:100EB00000221146104600F0C9F900F0DDF90C4897
:100EC0000078401CC0B20A49087018280EDB0020C8
:100ED00008490870064908700748407A07490870B1
:100EE00007480068012108430549086010BD00005B
:100EF000F9000020F8000020640200201C000020FF
:100F00004800002064200149087070470C00002050
:100F100010B500F0B1F9FFF73FFF10BD00B508486C
:100F2000407B0849087000200749087000F0E2F98A
:100F3000002006490870064908700649087000BD7F
:100F4000640200200C00002044000020310000203A
:100F5000300000202F00002010B500F08DF9002295
:100F60001146104600F072F910BD000000B50022D5
:100F700006E000201749885488548854501CC2B297
:100F8000062AF6DB00201449088002F0C1FC134851
:100F90000078030002F044FC09100F060C09161635
:100FA00016131600FFF7BAFF12E000F0B1F80FE0D9
:100FB00000F014F90CE000BF00F03EF908E0FFF784
:100FC000A1FF05E003200549087000F007F900BF04
:100FD00000BF00BD1D0000207E0000201C0000207E
:100FE00010B5A8B0A0223E496846FFF7C3F800F04C
:100FF00043F93C48006880210840002819D039484E
:10100000006888433749086037480078002809D1CC
:101010003648807A3649C8703448C07A08713348F7
:10102000007B48710120304908704F203149087019
:1010300042E03048007800283EDD2D48C0782D4938
:10104000097849006A46515A48438003000E2A49EC
:10105000087027480079274909784900515A4843C0
:101060008003000E254908702148407921490978FC
:101070004900515A48438003000E214908701D4819
:101080000078401E1B4908701B480078002808D1D2
:101090001A480078002804D119480078002800D1A7
:1010A000087014480078282806DA0F4800780128CC
:1010B00002D100200C49087001240DE00E48007890
:1010C000104908550D4800780F4908550C4800781C
:1010D0000E490855601CC4B2062CEFDB28B010BDC9
:1010E00044420000480000200D000020640200205F
:1010F00016000020440000202F00002030000020B7
:10110000310000201D0000202300002029000020C5
:101110000848407B0849087008480078002807D133
:10112000074908700749087007490870074908709F
:1011300070470000640200200C0000200D00002019
:101140004400002031000020300000202F0000204B
:1011500010B500F091F81A480078002804D0012852
:1011600009D0022815D10DE0FF23154A154916486C
:10117000FFF7F4FD0EE0FF23114A14491148FFF771
:10118000EDFD07E0FF230E4A0F491048FFF7E6FD8B
:1011900000E010BD00BF01240DE00B4800780C49B1
:1011A0000855084800780B490855084800780A494E
:1011B0000855601CC4B2062CEFDB00BFE9E7000055
:1011C00044000020300000202F00002031000020CB
:1011D0001D0000202300002029000020FF200949D5
:1011E0000870002008490870084908700848407BCA
:1011F0000849087005200849087000200749087050
:10120000704700002F000020300000203100002037
:10121000640200200C0000200E000020440000208A
:1012200010B500F029F8034B1A7BD97A987A00F0B0
:101230000DF810BD640200200248407B024908708E
:1012400070470000640200200C00002010B5034627
:10125000012007E0054C2354054C2154054C225431
:10126000441CE0B20628F5DB10BD00001D00002084
:10127000230000202900002010B501242CE018498B
:101280000A5D1849897B4A431046FF21FEF7AEFFED
:1012900061006118144A505414490A5D1149897B50
:1012A0004A431046FF21FEF7A1FFC1B2600020189B
:1012B000401C0D4A11540E490A5D0A49897B4A4374
:1012C0001046FF21FEF792FFC1B260002018801C7B
:1012D000054A1154601CC4B2062CD0DB10BD0000BE
:1012E0001D0000206402002058010020230000207F
:1012F000290000200548807A0549C8700348C07A53
:1013000008710248007B48717047000064020020A9
:101310001600002010B5FFF7E7FC15480069022110
:101320000840002813D000F0B1FE02F009F910487F
:101330008068C007C00F002818D0FFF79DFCFFF79A
:1013400067F900F081FB01200A4908700EE00848A7
:101350008068C007C00F002808D0FFF78DFCFFF79A
:1013600057F900F071FB01200249087010BD000020
:101370009C0100204C00002010B53A480069022171
:101380000840002805D137488068C007C00F0028F2
:1013900003D100203449087010BD34480068202172
:1013A0000840002808D03148006888432F49086069
:1013B00005202D4908704BE02C480078C007C00F6D
:1013C000002828D0294800684008400027490860C4
:1013D00027480088002804D025480088401E24495A
:1013E000088024480078401CC1B22248017022487D
:1013F000C07C814205DB02201B49087000201D498A
:1014000008701E480088002822D01C480088401E12
:101410001A4908801CE01548006808210840002887
:1014200008D01248006888431049086003200E491C
:1014300008700DE00D48006810210840002807D012
:101440000A48006888430949086004200649087072
:1014500001F0F8FA01F066FB02F0E4FC02F00CFD8A
:1014600000BF99E79C0100204C00002054000020A0
:10147000EC000020EF00002064020020900000201B
:1014800010B50C480078002804D0012805D00228A7
:1014900009D105E000F076FC09E000F053FA06E01F
:1014A00000F004FB03E000200349087000BF00BF08
:1014B00010BD00004D0000204C00002010B5184861
:1014C0000078C007C00F002807D015480068400802
:1014D000400013490860FFF749FD124800780300F7
:1014E00002F09EF909120F060C09181818151800B9
:1014F000FFF70EFD0FE0FFF773FD0CE0FFF728FE8E
:1015000009E0FFF78DFE06E0FFF726FD03E0FFF799
:10151000A3FC00E000BF00BF01200349087010BD1C
:10152000480000201C0000204C00002010B502F0F4
:10153000B5F9042002F038F9FF21502000F04AFFED
:10154000162002F031F9502000F0A4FE0E48007879
:1015500080210840002813D00B4880780B49487040
:101560000948C078887008480079C87006484079F2
:10157000087107480068012189050843044908608B
:1015800001200449087010BD6A010020630000209A
:10159000500000204C00002010B5A14800788008C1
:1015A00080009F4908709F4800681021084000286B
:1015B00005D09B4800780121084399490870994853
:1015C000006808210840002805D0954800780221CD
:1015D000084393490870924800788007800F0028DC
:1015E00006D0012842D002286DD0032875D198E09A
:1015F0008D4800780C21084004282DD08A480078B6
:101600008007800F002827D1884800780007000F46
:10161000002821D085480078401E8449087008467B
:1016200000780007000F002816D108460078202116
:101630000840002810D17D48007808437B49087095
:10164000794800780C21884377490870084600786B
:1016500004210843744908707348007880088000AA
:10166000714908700846007808709EE06E4800785E
:101670000C210840042803D188206C49087015E02B
:10168000694800780C210840082803D148206749A0
:1016900008700BE065480078000900016349087094
:1016A0000846007808210843604908705E480078C1
:1016B000800880005C4908700846007801210843D2
:1016C0005949087071E0584800780C2108400428F6
:1016D00004D148205549087016E063E0524800786C
:1016E0000C210840082803D18820504908700BE0DD
:1016F0004E480078000900014C49087008460078FF
:10170000082108434949087047480078800880004C
:10171000454908700846007802210843424908708C
:1017200043E0414800780C21084008282DD03E486D
:1017300000788007800F032827D13C4800780007F5
:10174000000F002821D039480078401E3749087022
:10175000084600780007000F002816D108460078D8
:1017600020210840002810D13048007808432F4934
:1017700008702D4800780C2188432B4908700846D2
:101780000078082108432849087027480078800815
:101790008000254908700846007803210843224943
:1017A000087002E000F09EFC00BF00BF1F480078F8
:1017B0002021084000282FD01C48007888431B496E
:1017C0000870084600788021084000280FD017488C
:1017D000007888431549087001201549487115485B
:1017E00000680121890508431249086014E00F4888
:1017F00000784021084000280ED00C48007888432B
:101800000A490870FF200A4948710A480068012106
:10181000890508430749086001200749087010BD81
:101820008000002000800440810000208200002011
:1018300063000020500000204C00002070B50646D8
:101840000D46F4B2002C00D170BD502C56DB522C4A
:1018500026D13948007801281DD1002D0DD13748F7
:101860000078202108433549087035480068012177
:1018700089050843324908605BE030480078202140
:1018800088432E4908702E480068012189050843C5
:101890002B4908604DE02946012000F0E7F848E0B8
:1018A000512C46D0552C44D12348007801281DD115
:1018B000002D0DD121480078402108431F490870B0
:1018C0001F4800680121890508431D49086030E070
:1018D0001A48007840218843184908701848006861
:1018E0000121890508431649086022E0002D20D116
:1018F00000F0AAFA022002F073FB1AE0002D0CD1CE
:101900000E48007820430D4908700D4800680121F9
:10191000890508430A4908600BE008480078A0439D
:1019200006490870064800680121890508430449F2
:10193000086000BF88E70000E2000020630000208C
:1019400050000020F8B52E480090002543E0E90043
:1019500000980C1800263AE0207840210840002822
:1019600001D1641C31E0E8008019C7B22078302131
:10197000084000280CD1207840210840002807D0DA
:1019800020788843207002213846FFF72BF91AE0AF
:10199000207830210840202815D1207840210840A7
:1019A000002810D02078884320701648007804283A
:1019B00005D11548006880210843134908600021BB
:1019C0003846FFF70FF9641C00BF701CC6B2082E22
:1019D000C2DB681CC5B2012DB9DB0C4800680121CF
:1019E00049030840002803D002200949087002E09A
:1019F000002007490870012006490870F8BD000062
:101A00005B0000201C000020480000205400002043
:101A10004D0000204C0000200020084948608860EC
:101A20000749486088600749486088600348406803
:101A300020210843014948607047000000400440ED
:101A4000006004400080044010B500F04BFB00F043
:101A500051FA00F043FB0348006803490843014979
:101A6000086010BD000001400100FA5A002913D19E
:101A70000A4A126801235B031A40002A0CD1074A64
:101A800012681A43054B1A600322054B1A70054A67
:101A900010700122044B1A7070470000540000209F
:101AA0005A000020580000205900002010B51E48A0
:101AB00004781E48007800280ED11D4800680121D6
:101AC000490388431A4908600020184908701649DC
:101AD0000870184908701FE016480078C007C00F4A
:101AE00000280AD000212046FFF7A8FE1148007800
:101AF000012148400F4908700EE002212046FFF7FF
:101B00009DFE0C480078012148400A4908700748AA
:101B10000078401E05490870002007490870012020
:101B20000649087010BD0000580000205A0000202F
:101B300054000020590000204D0000204C000020DF
:101B400070B500207B4908707B49087001207B49F3
:101B500008607B49086000207A4908607A4908607B
:101B600000240CE0002506E00020E100774A8918F7
:101B70004855681CC5B2082DF6DB601CC4B2012CA8
:101B8000F0DB002072490870487072490870002428
:101B900004E0002070490855601CC4B2072CF8DB33
:101BA00000206E4908706E480068802188436C49A7
:101BB000086000206B490870B9226B496B4801F03E
:101BC00057FF6A494878097800020843B9280BD1C1
:101BD000B721664801F080FE6449A3314A7D0B7D40
:101BE00011021943884204D0B92261495F4801F0CB
:101BF0003FFF604800680121C9020840C00A800117
:101C0000802108435B4909682022114049094901A4
:101C1000084359490968022211404908090108434B
:101C200055490968C907090F084352490968C90796
:101C3000490F08434F49096892031140C90B4900F5
:101C400008434C4909680222114049080843A72863
:101C50001AD0E32811D0E52808D0E6281BD10120AE
:101C60004649087008214148C17415E002204349E3
:101C7000087002213D48C1740EE003203F490870FE
:101C800004213A48C17407E004203C49087001214E
:101C90003648C17400E000BF00BF00BF354800688F
:101CA0000121C9020840C00A80018021084331494E
:101CB0000968202211404909490108432E49096851
:101CC000022211404908090108432B490968C90744
:101CD000090F084327490968C907490F08432549DF
:101CE000096892031140C90B49000843214909685A
:101CF0000222114049080843FF28CFD11F4800782D
:101D000000280CD0022002F06BF908201C49087052
:101D100013480068012108431149086009E013488D
:101D2000407A174908700E480068012108430C49A1
:101D3000086070BD4C0000204D0000200400002011
:101D40000800002050000020540000205B0000200C
:101D50006A0000206C000020630000207800002052
:101D6000480000200D00002080FC000064020020DC
:101D7000205700000080044000400440F80000208C
:101D80001C00002008B5002000902C4800680221AB
:101D90000840002804D169460878012108430090D2
:101DA000264800680121C9030840002804D169467B
:101DB000087802210843009020480068C007C00F3F
:101DC000002804D1694608780421084300901C4883
:101DD0000068C007C00F002804D1694608780821B0
:101DE000084300901648006802210840002804D1EA
:101DF00069460878102108430090104800682021A7
:101E00000840002804D16946087820210843009042
:101E10000A4800680121C9020840002804D1694627
:101E20000878402108430090684601780020FEF7BA
:101E300085FE01200349087008BD000000800440B1
:101E4000004004404D00002010B52948407D401C52
:101E5000C1B227484175007D401E814202DD00214C
:101E6000234841752248407D8100214817300918D8
:101E700048780A78010211431D4880792322504393
:101E80001B4A08328018C171090A01721848407D46
:101E9000810010460F300918C8788A780102114372
:101EA0001348807923225043114A08328018417226
:101EB000090A8172083A927923235A430C4B08335A
:101EC000D218937A547A1A0222431146084A927918
:101ED00023235A43064B0833D218137AD4791A02B3
:101EE0002243104602F0DCF801F012FD10BD0000A4
:101EF0006402002010B502F09FF810BD154840683C
:101F00000221884313494860084640680121C903FB
:101F100088431049486008464068400840004860CF
:101F20000D484068400840000B494860084640683A
:101F300002218843084948600648406820218843B8
:101F40000449486008464068C9148843014948600C
:101F5000704700000080044000400440154880683D
:101F60000C218843134988600846806880008008F7
:101F70008860084680688008800088600E48806815
:101F8000800880000C498860084680680C218843DE
:101F90000949886007488068032189028843054908
:101FA0008860084680680321890588430149886064
:101FB000704700000080044000400440064840682C
:101FC0001021884304494860084640680821884336
:101FD000014948607047000000800440064880685E
:101FE0000321090288430449886008468068C021AB
:101FF0008843014988607047008004402148007888
:10200000800880001F4908701F48006810210840A0
:1020100000280CD01C48406888431B49486008468B
:102020008068032109028843174988600BE016483D
:102030004068102108431449486008460068102190
:1020400088431149086010480068082108400028AA
:102050000BD00D48406888430B49486008468068AB
:10206000C0218843084988600BE007484068082180
:10207000084305494860084600680821884302492A
:1020800008607047800000200080044010B5FFF712
:1020900035FFFFF763FFFEF7B3FD022001F084FB7D
:1020A000FFF7ACFFB6213B2000F094F9322001F09D
:1020B00069FB0748406A2021084305494862FEF74A
:1020C0004BFAFEF76DF903480349086010BD0000A4
:1020D000004004400000FA5A0000014010B5FEF72D
:1020E00011FA10BD10B50024FFF768FFFFF776FF67
:1020F000042001F059FB0C4800681021084000281A
:1021000001D0012004430848006808210840002845
:1021100001D00220044305480470054800780821D6
:1021200008430349087010BD00800440810000206E
:10213000820000200020002805DBC206D20E01210B
:102140009140074A116000BF0648C06A002802D0CB
:1021500001200549087003200249C8627047000049
:1021600080E200E000000640BC00002010B51D2009
:1021700001F070FB124813490862134800690121FD
:1021800089040843104908611D20002815DBC20698
:10219000D20E012191400D4A116000BF00BF00BF67
:1021A000BFF34F8F00BF00BF00BF00BF00BF00BF25
:1021B000BFF36F8F00BF00BF00BF00BF10BD0000A6
:1021C00023800000008004409C01002080E100E0AA
:1021D000034800680349084301490860704700004C
:1021E000002004403FC00700274800680121090380
:1021F0008843401824490860244800680F210902D8
:1022000088430721090240182049086008460068F1
:10221000082188431D490860084600680221884358
:102220001A49086008460068042188431749086075
:1022300008468068000A00020B308860062048606B
:102240000846006801218904884340180F49086046
:102250000F48406A202108430D4948620B48006836
:10226000C0218843C03009490860094840682021DE
:102270000843074948600548006840084000401C82
:10228000024908607047000000E0054000C00140BE
:102290000040044038B5044627480068C021884300
:1022A000C030254908602548806A20210843234919
:1022B00088622148C46100BF1F48C068C006C00FC3
:1022C0000028F9D11C48C069C0B200900C2001F070
:1022D00081FAFF201849C861C861C861C861C86136
:1022E000C86100BF1448C068C006C00F0028F9D1FB
:1022F00000BF1148C068042108400028F9D10E48E9
:10230000C0690F4908700C48C06948700A48C06924
:1023100088700948C069C8700748C06908710648D4
:10232000C06948710548406A202108430349486252
:10233000042001F039FA38BD00C0014000400440DB
:102340006A01002038B5044620480068C02188434F
:10235000C0301E4908601E48806A202108431C497D
:1023600088621A48C46100BF1848C068C006C00F20
:102370000028F9D11548C069C0B20090142001F0BE
:1023800013FAFF201149C86100BF1048C068C00699
:10239000C00F0028F9D100BF0C48C06804210840D4
:1023A0000028F9D10948C069C1B20091032001F0A9
:1023B00009FA0748406A2021084305494862162067
:1023C00001F0F2F96846007838BD000000C0014015
:1023D0000040044038B505460C461448806A202168
:1023E000084312498862802028431149C861084681
:1023F000C46100BF0E48C068C006C00F0028F9D1F4
:102400000B48C069C1B200910948C069C1B20091CE
:10241000032001F0D7F90548406A20210843034909
:102420004862162001F0C0F938BD000000400440A9
:1024300000C00140FFB581B006460F461D46002D85
:1024400004D0012D0BD0022D14D10FE03148806A49
:10245000202108432F498862022088620BE02D4822
:10246000806A202108432B49886204E00220294920
:10247000886200BF00BF00BF802030432649C8618A
:1024800000BF2548C068C006C00F0028F9D11E2033
:1024900001F098F900240EE0385D1F49C86100BFC3
:1024A0001D48C068C006C00F0028F9D11E2001F0E9
:1024B00089F9601C84B203988442EDDB00BF1648A2
:1024C000C068C006C00F0028F9D11E2001F07AF9BB
:1024D000002D04D0012D0BD0022D14D10FE00D489A
:1024E000406A202108430B494862022048620BE001
:1024F0000848406A202108430649486204E0022057
:102500000449486200BF00BF00BF162001F04CF92B
:1025100005B0F0BD0040044000C001400D48007807
:10252000002815D00C48C06A8007C00F002803D0CF
:1025300000200A4908800BE008480088401C074931
:102540000880084600885A2802D1002001490870F6
:1025500070470000BC00002000000640BE000020C4
:1025600010B52D48C068C006C00F002802D0012851
:102570000DD107E028480068012802D127482849E2
:10258000086005E07D2000022549086000E000BFEA
:1025900000BF214800694007400F030001F040F9E7
:1025A000080507090B0D0F11131501240EE0022475
:1025B0000CE004240AE0082408E0102406E02024AB
:1025C00004E0402402E0802400E000BF00BF214678
:1025D00013480068FDF700FE1149086008460068CE
:1025E0001049884208D9104810490860401C08600A
:1025F0000D48093008600DE0094800680C49884220
:1026000004D90948401E0949086003E00648001F34
:102610000649086010BD000000000640006CDC02A6
:10262000FC00002000366E010400FA5A002006402B
:10263000001BB700114812490860401C08600F4891
:102640000930086001200F49086000BF0D4880680C
:10265000C007C00F0028F9D000200A49C86000BF99
:102660000848C068702108400028F9D10548006971
:10267000C008C00003490861704700000400FA5A0E
:10268000002006400000064070B52D480078450641
:102690006D0E2B48007880210840002802D00020D1
:1026A00000F03EFB002D14D125488078012845D14B
:1026B0002348006980218843214908610846006950
:1026C000204908431E4908610021084600F0F4FA39
:1026D00070BD022D32D11A48807800282ED11848BA
:1026E00000794406640E002C13D11548006920219E
:1026F0000840002822D000201349087010480069C3
:10270000E90308430E4908610021084600F0D4FAA5
:10271000DEE7022C12D80A48806801280ED100207A
:10272000094908550648006901210904084304497C
:1027300008610021084600F0BFFAC9E700BFC7E7FB
:102740009C01002000010100A80000200349C96B82
:10275000012282409143014AD163704700C0054085
:10276000F0B504461D062D0E2D061604FF273F0466
:102770003E4035430E023F123E403543E6B23543FC
:102780002846F0BD05490A6905491141084600BFC0
:102790000146401E0029FBD17047000000000640A2
:1027A000DC05000005490A6905491141084600BFDA
:1027B0000146401E0029FBD1704700000000064082
:1027C0008038010010B5012080052A4988602A4818
:1027D000807C02281AD10020274988740846406965
:1027E000264988420FD124488069254988420AD168
:1027F000002404E0A000002101F0D8F8641C402C63
:10280000F8D3FDF7AFFC04201B4988741D4800690C
:1028100040210840002813D01A480069884319490C
:1028200008610846007B1349C860002000F078FA70
:10283000144800690121090488431249086110BD48
:102840001048C088002810D00E48006901210904F2
:102850000840002809D100F025FF0A48006901213D
:102860000904884307490861E9E7002000F058FAA5
:1028700000BFE4E700C00540B0010020AA55A55AFA
:10288000FF0033CC9C01002010B5012040053249E7
:1028900088603248807C012821D1002409E0A00012
:1028A00001F06CF82E480168A2002C4814308150C9
:1028B000641C102CF3D30220284988740846406910
:1028C0002849884204D1254880692749884222D076
:1028D0002648007801210843244908701BE01F485E
:1028E000406D012149020840002814D01B48406D6A
:1028F00088431A494865002001F040F818480068EC
:102900000004000E154908700846406D0121490376
:10291000084312494865164800690121C903084067
:10292000002804D10021084600F0C6F90CE00A484E
:102930004068012109060840002805D10648806941
:10294000C900084304498861094800690121C90395
:1029500088430749086110BD00C00540B001002050
:10296000D0000020AA55A55AFF0033CCE00000207B
:102970009C0100201CB53320C0042B498860002036
:1029800000F0C2F928484068012189040840002865
:1029900040D1264800690321C903884323490861BF
:1029A000002000F0EBFF224800680190042000F0B6
:1029B000E5FF1F48006800901C4901980870FF213E
:1029C000090201980840000A18494870FF210904CB
:1029D00001980840000C154988700198000EC870D5
:1029E00000980871FF21090200980840000A0F4969
:1029F00048710098000CC8800846047860210C409B
:102A0000002C02D100F03EFD1CBD202C06D100F0B0
:102A1000A1FAF9E70120800403498860002000F052
:102A20007FF900BFF0E7000000C005409C010020D6
:102A3000D0000020FF20013001498860704700006D
:102A400000C0054070B52C4D2B482430866828689E
:102A5000C00FC007002801D1022070BD2868400FB8
:102A600040070121C907884243D124484078002803
:102A70003AD123480068490A0840002832D020484B
:102A8000006888431E4908601E48C07800061D4A39
:102A90009278120410431B4A527812021043194ACA
:102AA000127810430146304600F092FF15488079B5
:102AB0000004144A527912021043124A1279104348
:102AC0000146301D00F084FF012403E000200D4981
:102AD0000855641C072CF9D30721012000F0ECF8FD
:102AE0000020BAE70120B8E7012000F019F903201F
:102AF000B3E70120B1E700001CC00540A80000209A
:102B000050000020630000200120014988607047C8
:102B100000C0054001204002014988607047000064
:102B200000C0054070B54C4C4B482030C56820684B
:102B3000C00FC007002801D1022070BD2068400FDF
:102B400040070121C90788427CD144488078002889
:102B50007AD14348006804210840002813D0404837
:102B6000006888433E4908603E48407800043D4A7A
:102B7000127812021043411C284600F029FF03215D
:102B8000022000F099F83648006802210840002829
:102B90000FD03348006888433149086032480078D4
:102BA0000002811C284600F013FF0221084600F0B5
:102BB00083F82B480078C007C00F002826D028488B
:102BC0000068400840002649086028484078000610
:102BD000264A127812021043C11C284600F0F8FE63
:102BE000224840790006214A1279120410431F4AF4
:102BF000D278120210431D4A927810430146281DD4
:102C000000F0E6FE0821022000F056F814480068A3
:102C100008210840002813D0114800688843104953
:102C20000860134840780004114A127812021043D9
:102C3000411D284600F0CCFE0421022000F03CF8A3
:102C400000207AE705E0FFE7022000F069F80320A2
:102C500073E7012071E7000020C00540A8000020B4
:102C6000500000206A0000206C000020710000204D
:102C70006D000020022001498860704700C00540B7
:102C800001208002014988607047000000C00540B3
:102C9000042001498860704700C005400120C0023F
:102CA000014988607047000000C0054008200149C4
:102CB0008860704700C0054010B5042800D910BDD9
:102CC000044B84001A1905235B070B43136000BFF4
:102CD000F5E7000018C00540002806D0042804D8F5
:102CE000024A83009B18803BD967704748C0054063
:102CF000042800D97047034A8300D11800220A60D3
:102D000000BFF7E718C00540042800D97047034A00
:102D10008300D11812070A6000BFF7E718C005400A
:102D2000042800D97047094A8300D118002808D127
:102D3000064A183A526801231B061A40002A00D09E
:102D4000F0E7072252070A6000BFEBE718C0054012
:102D500010B510488168002000F028FE0D488068FA
:102D6000012807D1012403E02046FFF7CDFF641CB2
:102D7000022CF9D90020084908600648006903219F
:102D8000890308430349086101210020FFF794FFEC
:102D900010BD00009C010020B400002070B500258B
:102DA000002428E01E48C1780C2060431D4A105CB6
:102DB00081421FD11A4801790C2060438018407865
:102DC000814217D1164881780C20604380188078A2
:102DD00081420FD10C20604311464018808812496F
:102DE00008600C2060431146401880680F49086055
:102DF000012502E0641C102CD4D300BF002D03D1A8
:102E00000020FFF78DFF70BD054800690121C9034F
:102E100008430349086100F045FC00BFF3E70000E8
:102E20009C0100204C560000B4000020B00000209F
:102E300010B51248806801281BD1104800788128FD
:102E400017D10E480079012813DC0C4800790C4991
:102E50000C5C2146002000F0A9FD08480069012112
:102E6000C90308430549086101210020FFF724FF39
:102E700010BD0020FFF754FF00BFF9E79C010020C0
:102E8000B800002070B5314800784406640E2F4821
:102E9000007880210840802802D00020FFF740FF02
:102EA000002C1AD12948006980210840002804D04C
:102EB0000221002000F07AFD03E00021084600F026
:102EC00075FD224800690121C90308431F490861B3
:102ED00002210020FFF7F0FE70BD012C1AD11B4823
:102EE000806801282FD11948407900282BD1174834
:102EF0000079012827DC0021084600F057FD13481F
:102F00000069E10308431149086102210020FFF72D
:102F1000D3FEE1E7022C16D10C48007945066D0E70
:102F2000022D10D80A48465D3146002000F03EFDD3
:102F300006480069A10308430449086102210020F2
:102F4000FFF7BAFEC8E700BFC6E700009C010020FB
:102F5000A800002010B512484078030000F060FC83
:102F60000C19070A0D191919191910131619FDF75B
:102F70007FFC12E0FDF722FC0FE0FDF74BFC0CE0BC
:102F8000FDF76EFD09E0FDF70FFD06E0FDF734FDEE
:102F900003E00020FFF7C4FE00BF00BF10BD00002B
:102FA0009C0100207D200449087401204874002001
:102FB0008874486570470000B001002010B5504883
:102FC000446850484E498860002C02D100F034F922
:102FD00010BD600F400700281AD0E00FC00700287E
:102FE00004D000F029F900F0FBF879E00120800717
:102FF0002040002802D000F027FB71E001204007AC
:10300000204000286CD000F017F900F005F967E0C7
:103010001F20C0042040002824D00120C0052040EB
:10302000002802D0FFF7A6FC5AE0012080052040CE
:10303000002802D0FFF7C6FB52E0012040052040E7
:10304000002802D0FFF720FC4AE00320C004204003
:10305000002845D00320C004294988600020FFF7DC
:103060005FFE3DE00F200002204000281CD0FF2022
:1030700001302040002801D0FFF7DCFC0120400295
:103080002040002801D0FFF745FD012080022040AC
:10309000002801D0FFF7F4FD0120C00220400028E5
:1030A0001ED0FFF7FBFD1BE02007000F002817D004
:1030B000E007C00F002801D0FFF726FD02202040C6
:1030C000002801D0FFF7D6FD04202040002801D0C1
:1030D000FFF7DEFD08202040002801D0FFF7E6FDC5
:1030E0002046012189060840054909680122920706
:1030F00011400840002801D000F0A6F800BF67E7A3
:1031000000C00540FFFFFBFE70B500F0EFF9FFF7D0
:1031100049FFFFF78FFAFFF723FA214800681021D3
:1031200008431F49086040210120FFF7D5FD802199
:103130000220FFF7D1FDC0210320FFF7CDFDE021E4
:103140000420FFF7C9FD174C4020206080206060FC
:10315000C020A060E020E060134C402020600820E8
:1031600060600920A0600820E06020610F481049DD
:103170000860022048611F25ED06322000F002FBA6
:103180000B48056140040A49403148620948C86259
:10319000012000F05FFB012000F074FB70BD000017
:1031A00000E005407801002088010020100000B0F8
:1031B00000C005400440000000B5062007494861F2
:1031C000FFF7E0FA052005494861FFF7EBFA0348ED
:1031D0004069042188430149486100BD00C00540A1
:1031E00010B50020C0430A498860012009490861E0
:1031F000002088600649C860FFF792FD012403E0C3
:103200002046FFF775FD641C042CF9D910BD0000A1
:1032100000C005409C0100200548006904210843C6
:103220000349086101204007024988607047000097
:103230009C01002000C0054010B5FFF7FBF9FFF727
:103240008FF900F091FA10BD0120800601498860D5
:103250007047000000C0054010B5134800692021E8
:1032600088431149086108460069402108430E4916
:10327000086108468078002805D0084600692021AA
:1032800008430949086108488078074908730846D7
:103290000069012109040843034908610021084627
:1032A000FFF70AFD10BD00009C01002070B52F4DF6
:1032B0002F48006920210840002851D02C488078F0
:1032C00000281DD12A49886008460069102108435A
:1032D00027490861012405E0012028552046FFF711
:1032E00007FD641C042CF7D9214800690121090459
:1032F00008431F49086100210846FFF7DDFC70BD47
:103300001B48807801282BD119498860084600693C
:103310001021884316490861002413E00020285535
:10332000002C0ED02046FFF7EFFC12480069611E0A
:10333000C840C007C00F002803D000212046FFF777
:10334000BBFC641C022CE9D909480069012109046D
:1033500008430749086100210846FFF7ADFCCEE7A6
:103360000020FFF7DDFC00BFC9E70000A800002037
:103370009C01002000C0054010B50020FFF7D0FCE4
:1033800010BD000070B52248007845066D0E20483B
:10339000007880210840002802D00020FFF7C0FC00
:1033A000002D0ED11A48807801282FD118480069C5
:1033B000184908431649086100210846FFF77CFCBC
:1033C00070BD022D1FD11248807800281ED11048F0
:1033D00000794406640E002C18D0022C16D80C4834
:1033E0008068012812D10C4908552046FFF798FC47
:1033F00007480069E90308430549086100210846B8
:10340000FFF75AFCDCE70020FFF78AFC00BFD7E794
:103410009C01002080010100A800002070B5164822
:103420008068012823D1154D002402E00020285592
:10343000641C042CFAD910480079012817DC0E48C6
:103440008078002813D10C4909790D4A50540A4953
:103450000879FFF77BF9084800690121090408434E
:103460000549086100210846FFF726FC70BD0020D1
:10347000FFF756FC00BFF9E79C010020A8000020E0
:10348000B800002010B518484078030000F0C8F9D3
:103490000C070A250D25101316191C1F2225FFF7EE
:1034A000F1FC1EE0FFF7F0F81BE0FFF76BFF18E000
:1034B000FFF7D2FE15E0FFF771FC12E0FFF75CFFAB
:1034C0000FE0FFF745FC0CE0FFF7F0FE09E0FFF727
:1034D000AFFC06E0FFF7A2FF03E00020FFF720FCAF
:1034E00000BF00BF10BD00009C010020002003E0D1
:1034F0000021104A1154401C0528F9D3002003E094
:1035000000210D4A1154401C0428F9D300210B4A14
:10351000117051709170D17011715171D1809160A1
:10352000117311460969012252041143034A1161C2
:1035300070470000A8000020B80000209C01002077
:1035400070B5394800690221884337490861374816
:103550000078012800D170BD00240AE034483549C4
:10356000C8603548406889030840002800D1F2E768
:10357000641C32488442F1D32F48406801218907F6
:103580000840002800D1E6E72B4800690921C90658
:10359000884329490861244800698021084000289F
:1035A00010D0002026498860084640682549084018
:1035B000234948600A2000F0F7F8214805682149AE
:1035C000C9430D400A2000F0EFF800F047F81A4810
:1035D0004068012189070840002802D1FFF72CFE2E
:1035E000B9E715E0104800698021084000280FD095
:1035F000134800681349C9430840A84208D00A4844
:103600008068012804D1FFF717FEFFF7D5FDA2E778
:10361000094840680121890708400028E2D1FFF7E6
:103620000BFE00BF97E700009C010020BC000020BB
:10363000AA55FA5A0000014000C00540E075090093
:1036400000800440DC7FFFFF03480069022108433B
:1036500001490861704700009C01002000200C49CE
:10366000086001200B49C86000BF0A48C0681021EB
:1036700008401028F9D10220064908610648074988
:103680000860002003490860054801490860704748
:1036900000C00540000006400200FA5A0020064023
:1036A000100000B0F8B52B4804682B48C0882B499F
:1036B0000968884203D22848C088284908602748FA
:1036C0000068002813D100210846FFF7F5FA2448C6
:1036D0000068402803D100202149086039E02148D2
:1036E00080690121090708431E49886131E00025EE
:1036F0000DE0E378A27861782078FFF731F806468C
:10370000A800314600F052F9241D681CC5B2102DE6
:10371000EFDB124800681249086010480068402832
:103720000ED340210020FFF7C7FA0A480068403056
:10373000084908600948006840380849086008E0FE
:1037400006480068C1B20020FFF7B6FA002003491E
:103750000860F8BDB00000209C010020B4000020EB
:10376000C000002000C00540054800690921C906C5
:103770000843034908610120400688607047000043
:1037800000C0054000B5034605E005480549C8608E
:10379000642000F009F818465B1E0028F5D100BD32
:1037A000AA55FA5A0000014005490A693C21114115
:1037B000484300BF0146401E0029FBD1704700006E
:1037C000000006400621484300BF0146401E002974
:1037D000FBD1704705490A693C2111414843400823
:1037E00000BF0146401E0029FBD170470000064083
:1037F00008480949086000200849886005483E30AB
:1038000005498860084600680249491C0843024986
:10381000086070470000FA5A0000014000E00540CF
:1038200030B47446641E2578641CAB4204D3635DD7
:103830005B00E31830BC18471D46F8E7002805DB9D
:10384000C206D20E01219140014A1160704700006A
:1038500080E200E0002805DBC206D20E0121914083
:10386000014A11607047000080E200E0002805DB9B
:10387000C206D20E01219140014A1160704700003A
:1038800000E100E0002805DBC206D20E01219140D4
:10389000014A11607047000000E100E010B500240B
:1038A0000B480088002811D10A49087003E000F095
:1038B00095FC601CC4B22A20FEF744FD042801D008
:1038C000032CF4DB7D2040010149088010BD00007D
:1038D00090000020A500002030B502460B460B48A2
:1038E0000DE01478521C05126C4021460C11614009
:1038F00004020D036C404D016C404C40A0B21C46CC
:103900005D1EABB2002CECD130BD0000FFFF00000B
:1039100000B51848407D0300FFF782FF05040B1235
:103920001A212800FF201449087000204870887070
:103930001DE0FF201049087048700020887016E0D4
:1039400000200D490870FF204870002088700EE0AC
:10395000002009490870FF204870887007E00020A7
:10396000054908704870FF20887000E000BF00BF64
:1039700000BD00006402002058010020094988634E
:103980000221084A4032116000BF064940310968EF
:10399000022211400029F8D10249C96B024A116084
:1039A0007047000040C00540D0000020074A9063E7
:1039B000D1630122054B40331A6000BF034A4032F5
:1039C0001268D207D20F002AF8D1704740C00540D4
:1039D000064A506091600122044BDA6000BF034A3E
:1039E000D268D207D20F002AF9D1704780C00540B3
:1039F000FEF720FEFEF7B4FDFEF7EAFBFFF784FBBF
:103A0000FEF70AF8FEF79CF8FDF722FAFEF7ECFB4A
:103A1000FCF7FEFDFFF7ECFE22E012481249C860F9
:103A2000124800780300FFF7FBFE0604070D101391
:103A30000A16FDF76FFC12E0FDF79EFC0FE0FDF7A4
:103A4000ABFD0CE0FDF772FD09E0FDF719FD06E0A6
:103A5000FDF734FD03E000200449087000BF00BFFB
:103A6000DBE70000AA55FA5A000001404C00002094
:103A700070B503460C4603E025781D70641C5B1C82
:103A80001546561EB2B2002DF6D170BDF0B585B008
:103A9000B04CA01F4079802812D006DC00280BD043
:103AA00004281FD0072874D1C5E081280CD08428B1
:103AB00014D08728F7D11CE02078A749087046E188
:103AC000A5480078207042E1A44800782070A348FF
:103AD00040786070A1488078A07038E1A048C07C30
:103AE000207034E121789E48C174022000F078FAF9
:103AF0002DE19B48C0792070002597E0601C0446AA
:103B0000057023206843964908314018017B601CEA
:103B10000446017023206843914908314018417BD5
:103B2000601C04460170232068438D490831401809
:103B3000017AC279080210430112601C0446017028
:103B400023206843864908314018017AC279080267
:103B50001043C1B2601C04460170232068438049B1
:103B600008314018817A427A080210430112601C21
:103B70000446017023206843794908314018817A4E
:103B8000427A08021043C1B2601C0446017000264C
:103B900042E0DBE0232068437149083140180F30D0
:103BA000B100411848780978000208430112601CEE
:103BB00004460170232068436949083140180F30DA
:103BC000B10041184878097800020843C1B2601C6E
:103BD00004460170232068436149083140180F30C2
:103BE000B1004118C8788978000208430112601CAE
:103BF00004460170232068435949083140180F30AA
:103C0000B1004118C878897800020843C1B2601C2D
:103C100004460170701CC6B2232068435049083125
:103C20004018007BB042B5DC681CC5B22078A842C1
:103C300000DD63E78BE0002572E0601C0446077836
:103C4000601C0446007823217943454A08328918CC
:103C500008730390601C044602782320784340498F
:103C6000083140184273601C044600780290601CC2
:103C7000044600780190029800020199084323212C
:103C80007943374A08328918C871000A0872601CE3
:103C9000044600780290601C044600780190029867
:103CA0000002019908432321794389184872000AC8
:103CB000887200262FE0601C044600780290601C89
:103CC00004460078019002980102019801432320E4
:103CD0007843234A083280180F30B20080180170F0
:103CE000090A4170601C044600780290601C04467A
:103CF0000078019002980102019801432320784343
:103D0000174A083280180F30B20080188170090AF3
:103D1000C170701CC6B203988642CCDB681CC5B269
:103D20002078A84289DC0E490A7CCB7B110219431A
:103D300008462821FCF75AFAC0B2014600901B2021
:103D4000FEF748FB022000F04BF900E000BF00BF87
:103D500005B0F0BD0E020020E20000200057000078
:103D6000640200201CB528A103C901910090284CD1
:103D7000A01F407900282AD001280DD080281BD010
:103D800081283AD12348807AA0702248C07AE07016
:103D90002048007B207135E0A1781E488172E178CF
:103DA000C17221790173FDF7E1F82078002802D073
:103DB000022000F015F925E01648407A2070002016
:103DC00060701448407BA0700020E0701AE02178F9
:103DD000114801700F4841721048006801210843E2
:103DE0000E490860A0786946095C0D4801700948D1
:103DF0004173022000F0F4F804E005200449891F13
:103E0000087000BF00BF1CBD141E28325000000007
:103E10000E020020640200201C0000204800002048
:103E20000C00002010B51248007800281ED0012098
:103E30001049087008460079002802D0012806D1F0
:103E400002E0FFF723FE06E0FFF78CFF03E005200A
:103E50000849087000BF00BF06480078012802D159
:103E600002200449087000200149087010BD0000BC
:103E7000EE0000200802002010B50024524800780F
:103E800000287DD051480088002879D150494860E9
:103E900008460068400840000860601E4C498031B8
:103EA0008862494800780221084000283DD01A2144
:103EB0004848FFF711FD47498876000AC8761C215B
:103EC000444801700021417002465178127809027D
:103ED00011430846C917890F091889108900411A2A
:103EE0000AD13C4A51781278090211430846C91791
:103EF000890F09188C100AE0364A517812780902A5
:103F000011430846C917890F091889104C1C314AFA
:103F100021463F208002FCF7EDFB002805D12A480E
:103F20000078022188432849087027480078C00794
:103F3000C00F00283FD0B7212748FFF7CDFC264906
:103F4000A3310875000A4875B92123480170002182
:103F50004170024651781278090211430846C91788
:103F6000890F091889108900411A0CD11A4A517811
:103F70001278090211430846C917890F091800E091
:103F800020E08C100AE0144A51781278090211439B
:103F90000846C917890F091889104C1C0E4A21467A
:103FA0000E48FCF7A7FB002805D107480078400819
:103FB0004000054908700648006840084000401C61
:103FC0000349086010BD0000EA000020EC0000205A
:103FD00000200040480200206402002080FC000015
:103FE000022809D11249097801221143104A11709F
:103FF0006721104A11801AE0042806D10C4909787B
:10400000022211430A4A117011E0082809D1084917
:10401000097804221143064A11706721054A11806C
:1040200005E00349097801221143014A11707047E4
:10403000EA000020EC00002010B516481649C860C0
:104040001648406A202108431449486200BF00BF57
:1040500000BF00BF00BF00BF1048806A2021084396
:104060000E4988625A213A20FEF7B4F94620FFF73C
:1040700089FB0220FEF766F90320FEF763F90420AE
:10408000FEF760F90520FEF75DF90620FEF75AF904
:1040900010BD0000AA55FA5A00000140004004403B
:1040A00070B505460C4632212046FCF79FF8000407
:1040B000060E31460F20FEF78DF932212046FCF71F
:1040C00095F8C6B231460E20FEF784F93221284613
:1040D000FCF78CF80004060E31462F20FEF77AF923
:1040E00032212846FCF782F8C6B231462E20FEF770
:1040F00071F970BD70B500262A20FEF723F9044639
:10410000042C16D115211320FEF764F91920FFF7AE
:1041100039FB2620FEF716F904462520FEF712F992
:104120000546BE2C03D1EF2D01D1012601E030461A
:1041300070BD80213D20FEF74DF900201349087025
:1041400000BF13481349C8600120FFF71BFB05207F
:10415000FFF72AFB0D480078401CC0B20B490870DD
:10416000372801DD002605E03D20FEF7EBF8044688
:10417000C02CE6D100BF00213D20FEF72BF9042121
:104180001020FEF727F93046D2E70000A4000020F7
:10419000AA55FA5A0000014010B504211020FEF77C
:1041A00019F91D211320FEF715F90F20FFF7EAFA80
:1041B00018211320FEF70EF91920FFF7F5FA012355
:1041C000044A0549E220FEF735F91920FFF7ECFA19
:1041D00010BD0000FE0F00000244000070B5002575
:1041E00000BF15481549C860FFF726FFFFF7D4FF49
:1041F000FFF780FF0446681CC5B2002C01D1062DD4
:10420000EFDB0F4A927923235A430D4B0833D21820
:10421000937A567A1A0232431146094A9279232335
:104220005A43074B0833D218137AD6791A0232430D
:104230001046FFF735FF70BDAA55FA5A000001403D
:1042400064020020000000000000030007000B00D3
:104250000F00130017001B001F00230027002B0076
:104260002F00320037003A003E0046004E00560054
:104270005E0065006D0075007D0085008D00950075
:104280009C00A400AC00BC00C400CF00DB00E70031
:10429000F300FE000A01160122012D013901490136
:1042A00059016801780188019701A701B701C6018A
:1042B000D601E601EE010102150228025002630256
:1042C00077028A029E02B202C502DA02EE02F80208
:1042D0000C0323033B03560372038D03A903C4039A
:1042E000DC030004FF00000000FF00000000FF00EE
:1042F000FFFF0000FF00FF0000FFFF000080FF0045
:1043000000FF8000FF008000FF00FF00FFFF0000B3
:10431000FF800000FF808000FFFFFF000000000022
:104320006050200000000001020304050607080A8F
:104330000C0E10121416181A1D202326292C2F32A9
:1043400035393D4145494D5155595E63686D727728
:104350007C81868C92989EA4AAB0B6BCC3CAD1D8E0
:10436000DFE6EDF4FBFFFFFBF4EDE6DFD8D1CAC3D7
:10437000BCB6B0AAA49E98928C86817C77726D6838
:10438000635E5955514D4945413D3935322F2C29F0
:104390002623201D1A18161412100E0C0A080706E0
:1043A0000504030201000000000001040810B5002C
:1043B000B600B700CD00E000E200E300E400E50055
:1043C000E900EA0052015301540183018A012102EC
:1043D000230224022502260227022A0292019401C6
:1043E000830102020302070218021A02B800010048
:1043F0000200040010000800520055000000041DD7
:104400004A7701048E966B643EFE7E5F1DB8F266AD
:104410004EFF5D19B0C2046B562AD62EBFDD19B00F
:10442000C3E529B1E023A5A9B1C10082674C1A9761
:104430008D795120C2068E7F7C7A764FFD5930E20D
:10444000460E9EBEDF1E9991A0A3A5A9D022C6EF5D
:104450005C1B918990A2A7CCFB5528B3E44AF76C6A
:104460003BF46A562EDE1F9DB8D3058D92A6CE1E54
:10447000BEDF1D99B0E246EF5C3AF66E5E3EFE5935
:104480007023D224597A01EA59FC7B26B3C0998A59
:1044900017437F1E8067D31229021A6417F3695DE0
:1044A0000BDBC4ED4D14DCBCC78D4D14DD105A94EC
:1044B000345F031A65DA5F34CD2BA837B4488C5EBD
:1044C0005E190D1B2A23109B4FEF2BBF9E7BB93922
:1044D000B9A95528D203273D5A19068D6B5878DEA5
:1044E000F6CB8D4A61A1F44EF2AE1CFA9E1912A8C9
:1044F000648E875C4534CFB42E617686DB50736260
:1045000071EA4531238A51DBA6B96137A95DF07B99
:1045100011D3E8D4883FADAC9B875A70A63895EB91
:104520003A37733DA247027A6297DA90975D7453E7
:1045300005FA646EB2AE7E6EBFE8833261943ADBF8
:104540008DD839D2026A1A861C579710BF140824D6
:104550006F28909468F41E61144E84505B949F649D
:1045600059558B3113E55D031E618E874817613AFB
:10457000A4426523E01C6E3239FE6788B6020E66DF
:10458000FA718ACEBCD5AFCF8280F9437F427CC41A
:104590001E805F1773DF383F5171399DE9691BC673
:1045A00028EC22727450A9D56614A345F48292CFE8
:1045B000FE464DAED1FADCFF327C1267B00B82CEE4
:1045C000FC4245DF4C99FC0AC87910973763B1CAA1
:1045D000D28883D8EAC7F4F94F815FB9BB755F739E
:1045E0000FACE777BE382A60A178E6AF65F87CA308
:1045F00056D68E759969C468F199269F1C9751DE2D
:10460000A6AC79AE65ABE573B649295C8CA268D2DD
:1046100067461E7CBBB76E7CB935B090203531B192
:1046200063A10311599F2F05244EBED3F8B202C5D2
:10463000ABF4AD1DE6F08396507F1C5BD4F0F9918E
:10464000E1F419AA473FEBA29A1580700CD9999E04
:10465000DFF8D82CB428FACA841247F43605B8B764
:1046600067D401026E82E468D5F4C0BFB4839DCCE8
:10467000D84646962F4498D05E037491DC067D4759
:104680006F7ED2F6F72432F387F81B2CAA76FD5AF8
:10469000F7EF40C9CC732C22D3C5781B0DD97EA36C
:1046A000C6CF74DB8CD2DE2B14FB3C4345A15730C4
:1046B000E1A52B52A74CDAE57551B1398258AF0309
:1046C0007EDC541E5EB90DEC40B126AC7B34C9D300
:1046D000E64F39B0C3226394ADDE9204257E606854
:1046E00014E42C3A41021AA8942F209323E94B3664
:1046F0009E2F4306131AB5770EE6FA44F2EDBC95E9
:10470000328E9F618984C2E096350A5134F0544C50
:1047100043A0D87EC019FE30847F30645B22A7ADF1
:10472000D813A4DE39CAD78A9EFED81A9F45C38102
:10473000EFE705890D70B6876F7FBDBB76AD3A6335
:1047400022479AB6979303201F8C3C17D64C6AC712
:104750009385F0DC1A0CF8CAA21571EB514FA785AE
:10476000890D50F4E2A0F7778E592431D648AAF289
:104770005D95169405E70B614C7D6927CCFB746A47
:10478000567AF15CD6A9BF51A7A2233D7380EDE311
:104790000D78AF145D51C3A52C99320668B4B3F3FC
:1047A000643FABB3552D70D7E58626EB3C1DA53A8B
:1047B0006A7E8254229F29CF0EAC4DEA424EE6EB30
:1047C0003C4374ECB277D48EB05579AA448C62B273
:1047D000C7F59F7E40DB1597B60B216231077CF849
:1047E000A52A807962138C19FF69C08631B6E2264A
:1047F000ACF9F9A37F454822F3214DF143B52B17BE
:10480000E3D04AF694E96BE7DF7FB29795FC0A3470
:1048100006188AC072A5613DC17518106D2BCD6F49
:10482000C6D10F0B5C3E33AC7809AF2C5BD51BE4D3
:104830001CE803847011791E24ADBA86AA3A54E7A5
:1048400047FF0F995C206F2D3C49B25AA65A008C45
:1048500058E6ED0F3DA8519C3A071E2F7EE1D1840A
:10486000C77CB99DE9F4AAA6030E3C64BF6DBF885E
:1048700068565609B406A76E44147B145FD313061A
:10488000DF763ADCAE7C2A9EEA7E3E79045464C729
:10489000E066A26489A6F8C9340617E8FE2B1DF964
:1048A000EB560A7A1F1EF2376971310CF1C279A4F6
:1048B0007A7037DD09D1F7293C930623D57D18BAE4
:1048C000568C115EAF2E6AD59E3A67AE18143BFD2A
:1048D0003C684B94BBD0632939337D01D4383142D5
:1048E000BF87D823231AA62A6FB9117636AB8CF866
:1048F00020B252251CF9818A070B54D27EDD1C0E92
:10490000EEDC1C2BB658C6411201E44B9256BF9206
:104910009EA1F61628C7BDFB5DD677FEE89DA39342
:10492000387CF22EAF585965C6E06880285F98C879
:10493000391263A80E4E5C34C39318990E868AE42C
:10494000B987BB0FB83F85B80205027AF788BA422B
:10495000D023E139575FBF0CE9D01EFEDC70E98D32
:1049600061D5B9E036FC0D58E768BE757E10DD30C4
:10497000A65FA235CAB29C437C6025DE87A85F9CF7
:10498000C7115CDAF61C33967A6EBE8A936918F109
:10499000B00960C5B1D8528617CBE2ADD9B17DDA86
:1049A000BD606462FDBAE3879F985EC4571D9CAEEC
:1049B000E8E1F6E2D9BF9D30014A3D72A93F73524A
:1049C000C9589C2CA5E687899D3BE13907946FB0B7
:1049D00040F236ED89B4062C2AA7BBEC7E92EEFCA1
:1049E0009A69B923A6FCD256D74C6DF16DE1E2ABC2
:1049F00017554944A37DBB3BF1F1A356B487B47B63
:104A0000D6F2858CC2A4380FCD9B483375AB4131AB
:104A1000A3F603DD297290C35D7B46A3FC0A14BD97
:104A2000ECB0379C183CF97C8082D8D927CC4E4911
:104A3000163EDAFFC9B87CD2436C7D65BA8BDD25A2
:104A40001ADDB1C0CF704603D90D2A7F820A4858BB
:104A50001642AB4EDD67AFE84573400F5D4EF4D3B1
:104A600052CFA4777E5BB3D805F1252431CCCAF8A8
:104A700080BF66386B7697B71AB90BBE11E31DF28B
:104A8000F33980ECF975ED86A561846D326E261AD6
:104A9000812382247FAB9B17AB95DDEFF2AB0E3801
:104AA00036163EF9CD9AB140C617BD5813273C7F44
:104AB000B9BA302D6C071D5D8182817837219867E6
:104AC000FD159530D0A4B2EC059348B0953F5E96A5
:104AD000164EB9926EFCD39E7FDB7E850B8480627E
:104AE00000D2B8F368374D61247619D09F36117F14
:104AF000565F83C9E43C31688F0233723F67F62901
:104B00008886294063FE1E6ACC1BC591255CE26E37
:104B1000A612211E380D3202540AFEBF214984E339
:104B2000C7571541C8629FA76B4ADDDC2A9E89DA08
:104B300032712BBEB8CDBFB36881313429400862D1
:104B4000E09D7FE6BD9D7CD38749D52BC6249EFC86
:104B50009C5FC4B10EF23C6A33297288FEC35A329C
:104B60002B9CF8448A2E89281C3A458F9619F3F914
:104B700011D0601538A767B767EE51A50470E6A598
:104B80005D29534443F13603C5EDD195FD93F9E911
:104B9000515FA62C3FF1CB97105391EAAFBC8780B1
:104BA000023DFA0A757DAF27E8BE25170289C206C5
:104BB0006BD9B165A720679D8A44C8975198D2A741
:104BC000552EA8585286F2C4A09AB1C8885056CC27
:104BD00028D7C0C1DF70BC8165A463E6F855B15623
:104BE000B7C3B12366209B823E3023B792ECF89086
:104BF000EDA874A32F9A4CDCF699D3F8D0E14AB112
:104C0000EBA56E6315D816FFDEA6C0FAA65B4715A6
:104C10002C78EB58D0E7AF0C3F156477E97B0F8910
:104C20002AA448365AC29FDAE2D82F435F7F97A35F
:104C3000B428F4FB375A274E3B4245DF2D7B76F5EF
:104C40002B83B071E88DF557666ABAEBEDDB455002
:104C500061F6FB063D63BABA286954C6276ECE35A5
:104C6000F6418760E3162C052448365A337EBC5D36
:104C7000D43D7B9A4BEFB478B130192043B3275C15
:104C80003076D83C5B4F7EBD09BB140D5AEAE52F48
:104C9000158E8150F8305C5347ACEB44CF68623FCF
:104CA000E171707E19A1287EBD112F0B58A7DCC5BC
:104CB0006B45DEEEDDD28E45DC99A73EF68D267281
:104CC000D1CD2ADE4DBF367059D1E2331AFFC25B17
:104CD000AB68C4E75FF4285AE21ECC97E4C886CEDE
:104CE000DEA118350C1DA872F8A852C55CB2C12807
:104CF000B4928205639BAA697E15F0FD652CF92AA2
:104D000008FE11A6F3FA8F1D4FBFF9F5E974A3D67B
:104D1000E56DEC15369409B69E3E1A1EA0BE7920AC
:104D2000616520AC9938DCAFBA77DB28B562E50F56
:104D30005D0DFFC5AE0AD06C3CEE52411D36CCBEB7
:104D4000E01F3B852B962BDB77E4853C7DD805B5B2
:104D50008F16EC7CFB6004D280B78BFBF3702EB90E
:104D6000E2B2BE5D1E0EDDAF3F5DA6256A70750E18
:104D70001D0537366C9AFADD9D9D55B6B1B50C917F
:104D80003F99DB5A895AB7222B57E7418226453D86
:104D90009CE44917994B8E542FC4BDDDF555B6D50B
:104DA000A81543DEF9C9EE20C7025CFDF1FEEE5006
:104DB000241637B82555529D0B116F64BCEF32E5B0
:104DC0006CCCD1F555B69243DDD7B2DDD9F7875615
:104DD0009D5DF2F3FB8F5CA074A0A4E0A56AC625DC
:104DE000D9B726E3EC9AB80B2F2F59F5E6ECCA1C7D
:104DF0006BD3C350CBEC2C625A56292F7E8FB754FD
:104E00007DC02A6DEEC65CBC307CD4A3582DBC1589
:104E100036B1D72F8C10B93315A2F9BE798E78CD63
:104E2000C28623C571B5B1C89417EE7AF3503A1211
:104E3000382852ECA1CF9B7C2289823313A73D5A9C
:104E4000E66559B75742BDAF773B7BDF5A2A5BB364
:104E5000B2D9AE2548C972E15CF6C9D435F9F781FB
:104E6000FBCAF8C01C3C2167816238D9371ED60EB8
:104E7000207EF8B99779378A6B29B7D71BD23A8B3E
:104E8000F35EF90933E115B932E111E3F2E70148C4
:104E9000B1E5ECB8E04954A99019132015538531B8
:104EA000D15EC268C0965C5216D1BC8327E80789E0
:104EB0002B3749DC374DD962283135D93F3E0AC6F8
:104EC0003F0106BEF7A143ED173B59C41A49E29AC8
:104ED000C649B22D707BA429901C67FBE82086731D
:104EE000D0ED06F4C8F9BF7CBC37498842664AFE5B
:104EF000FADEED7D45960528EF329BA42E8BA41299
:104F00002851705B77DAA357FFA713C9CE54EFD1AE
:104F10008D2A25135A7AA88896422F5E1812B9AFA7
:104F20007A491C6944BD916A71E560A96BB5CAA252
:104F30000D5C40C481074496EDD28CA3F54B9CF0E8
:104F4000395B7C505789D9DBCB9CB9844140110730
:104F5000070E3D458B7FD6575DFAF176AC9C18C79E
:104F6000FA18F044AA8270DCAD519E02312181FF13
:104F70004BD98FE6CD1248B303897541FFE33D4914
:104F8000F5C91EC0F1C0DC40818A781362AA52CFF5
:104F9000633AD3ED3D749DD68C90938A0458A51442
:104FA0000B4BA865A5DBFC28518458D495720728C3
:104FB0002952220060B54B376772395611CE9CBA20
:104FC0005602C5A1EE0F1E98129A8C3CC725D0F050
:104FD000249729F899CB754AA22C9ED08140CD47C1
:104FE00072E1D424C90F90AFD561CA8C7B567BBFC8
:104FF000994AB16E363FF81A7C8042E41F77690BFC
:10500000334BDC9A73AA8858B22F4EB95F54EB6ABF
:10501000AC658246D649C291BB6A0D1B5FD2C7CA36
:105020001B11084C644E1709FB8FF2C4E1716FBF6E
:105030007CC5F3052FCFC39EC740EBB54B3B6772D2
:10504000D8B5D72346CEBEF32784A4BA34CCDB2907
:105050008B32DB1D817322BA730C691B15AB815334
:10506000D02D7B55A7F2397719BEFDA7A18D700A07
:1050700065C3E54B41F2339E011FD4DAD36DCADC20
:10508000FA751C88A7B651FA176A2415F251138DC8
:1050900018F04FCB2A89573269F345A81F9E17A3F2
:1050A000B449D7AD05F2E19CF23E4D5E42832C48F7
:1050B000C9B0C0571EBBBA34CBDB0AE815DD572F89
:1050C000224A5B1CD2D5AB25AAE295D4217F235579
:1050D000895563D6A18BE2B4FBA0160D5FBDE53206
:1050E000405E6AEF2C0EBBAB41C99F426E72BA9D07
:1050F000FDBB03C2E7050A51A11B82415A0FC27AC8
:105100006182D9A501EEA0AADB6858560C8CBD5966
:10511000226C8740A7FDB947B67DA26CCD578FBDE5
:10512000670F35C67EDD193FE11B129B81B9807781
:10513000892E4BDD96506B7C267D78F47C983A7FE7
:10514000BEDFB3DA083452B0229925204DE626118D
:10515000059A716DDA1912E500CD3BC38641D15A2B
:10516000FD1205A99FC7E5501C842C837385D79831
:105170005A98AD91CC06E50D786004264C374A74F8
:10518000E268C7893038EEE5AB941303230857E390
:10519000CFC9762D4CFDBE60D6D0164DB987CBE673
:1051A0002DA3ED244833656409583D69D221607E02
:1051B000258FC00AAF0EB98CFE3726942AB49E9470
:1051C0000FD3874CD537528096A0C11FF00E97C4DD
:1051D0000018B2E57CD047970B1ADECEFB3D135E7C
:1051E000DF1ECAFC7F46A92A9048FDE68449DEEE10
:1051F0001869F5A9239A0D1F5577D835AB40E6AF4E
:10520000639E3C19C2D96ADE33C176703AD1A1429D
:10521000C6CF51024E3092054FBCC674ED65403B7F
:105220002688EEDB5CF01930E115824268F160EC13
:1052300064152F485C184C16A3CDB0284812843E44
:10524000544FA669DE56DEDB7DB23D1992F3AFD92D
:105250008A50D89542E9EFB76F9276E8A8964E0C3F
:1052600044D0C4A3FAA383C7F9928CAB9B47F9152A
:10527000A8D226CEFF5D1991818082672DD813A414
:10528000ABD40B94AAB7CDF95120A3A5C8F345E937
:105290005022C6EF5C3AD70D9893858873644AF71D
:1052A0004DF95120A3C40A96AEDE3EFE7E7E7E5F9F
:1052B0003CFA764FFD7872662FBDD930C3E54812AF
:1052C000878C7B5528D2078C9A97ACDA178D795149
:1052D00020A3C4EB540B948B94AAD62EBFFC5B1571
:1052E000A8D226AFDC1BB4EA37EC3BF46A37CD1802
:1052F00093856931C1E140E325C812878C9AB6CF06
:10530000FD5911A0C2068E7F5D38F2470C7B746A8E
:1053100037EC5A36EE3FFC7A764F1C9B95897141EB
:10532000006344EB542AD60F9CBAD70D9893856935
:1053300031C10082868E9EBEDF3CFA572CDA36EEF3
:105340003FFC5B158971410082868E7F5D38F24794
:10535000ED5813A4CAF74DF95101806344EB542A68
:10536000D62EBFDD1991A0A3A5A9B1E042068E7F7C
:105370005D1991A0A3C40A968F7D7872470C7B7447
:105380006A562EDE1FBCFA570D7951016121A1C06A
:10539000E325A9B1C1E14002674C1A978D9893A407
:1053A000ABD42AD60F9C9BB4CB14AAB7CDF951200D
:1053B000A3C4EB35C9F16042068E7F7C7A766E3FDE
:1053C000FC7A766E5E3EFE7E5F3CDB15897141E1C4
:1053D00021C0E344EB542AB7CDF9706227ADD8322F
:1053E000C70C7B744B14AAB7EC3BD528D2076D3998
:1053F000D120C2E74C1A978D98B2C70C01E6F39BF7
:1054000012010002000000402410202101010102CD
:10541000000105010902A1010901A1000509190105
:105420002905150025019505750181029501750372
:10543000810105010930093116018026FF7F7510B1
:105440009502810609381581257F75089501810629
:10545000050C0A380295018106C0050C090015806B
:10546000257F95407508B102C0005700050C090161
:10547000A101850119002A3C021500263C02751085
:1054800095018100C005010980A1018502198129CA
:10549000831500250195037501810275019505812C
:1054A00001C005010906A1018503050719E029E7E7
:1054B0001500250175019508810295017508810186
:1054C00095057501050819012905910295017503D6
:1054D000910195057508150026FF00050719002A9A
:1054E000FF008100C006A0FF0901A1018504090297
:1054F000150026FF00957F7508B102C006FFFF0961
:1055000001A10185050901150026FF009503750815
:105510008102C000A700050C0901A1018501150049
:1055200025019520750109B509B609B709CD09E02E
:1055300009E209E309E409E509E909EA0A52010A6D
:1055400053010A54010A55010A8A010A21020A2359
:10555000020A24020A25020A26020A27020A2A024D
:105560000A92010A94010A83010A02020A03020A4A
:1055700007020A18020A1A0209B88102C0050109C5
:1055800080A10185021981298315002501750195E6
:10559000038102750595018101C00600FF0901A183
:1055A0000185031AF1002AF80015002501750895F8
:1055B000028102C09E0009023B00020100A04B09CB
:1055C000040000010301020009211101000122571A
:1055D000000705810308000109040100010301011E
:1055E0000009211101000122A7000705820309001B
:1055F00001040309040E03580041004E004F0056F9
:105600000041003C03580041004E004F005600414D
:1056100000200058004D00330038003000200050BA
:105620000072006F002000470061006D0069006E8D
:1056300000670020004D006F007500730065000AD0
:1056400003440045004D004F000000000100000031
:105650001200000000540000020000003B000000A7
:10566000B65500000300000004000000F1550000E2
:105670000309000004000000F155000003000100D0
:105680000E000000F5550000030901000E000000A7
:10569000F5550000030002003C0000000356000026
:1056A000030902003C000000035600000500000052
:1056B00007000000D15500000500000007000000B1
:1056C000D15500002100000009000000C85500006D
:1056D0002101000009000000E15500002200000047
:1056E000570000001254000022010000A700000033
:1056F0006C540000220200009E00000016550000BD
:10570000000400001C000000FFFFFFFFFFFFFFFF81
:10571000FFFFFFFFFFFFFFFFFFFFFFFFFFFF000097
:10572000B9000814081400010003FFFFFF37FF4011
:10573000064006010502009001900120032003406D
:10574000064006800C800CC012C0120103FFFFFF50
:1057500037FF40064006010502009001900120033A
:10576000200340064006800C800CC012C0120203C9
:10577000FFFFFF37FF400640060105020090019041
:10578000012003200340064006800C800CC012C09C
:10579000120303FFFFFF37FF40064006010502002A
:1057A000900190012003200340064006800C800CED
:1057B000C012C0120403FFFFFF37FF40064006017E
:1057C000050200900190012003200340064006805E
:1057D0000C800CC012C01200009600A40605008CBC
:1057E000008C0005007500750030750406080B0D6F
:1057F0000F121416191B1D20222427292B2E30329C
:105800003437393B3E40424547494C4E505355573B
:105810005A5C5E616365686A6C6F71733C58000026
:105820000000002000010000040100003C590000BD
:1058300000010020800400002001000000000000A2
:105840000000000000000000000000000000000058
:105850000000000000000000000000000000000048
:105860000000000000000000000000000000000038
:105870000000000000000000000000000000000028
:105880000005000000000000000000000000000013
:105890000000000000000000000000000000000008
:1058A00000000000000000000000000000000000F8
:1058B00000000000000000000000000000000000E8
:1058C00000000000000000000000000000000000D8
:1058D00000000000000000000000000000000000C8
:1058E00000000000000000000000000000000000B8
:1058F00000000000000000000000000000000000A8
:105900000000000000000000000000000000000097
:105910000000000000000000000000000000000087
:105920000000000000000000000000000000000077
:0C5930000000000000000000000000006B
:020000040000FA
:04FFFC005555AAAA03
:04000005000000C136
:00000001FF
