:020000040000FA
:10000000A8030020D9000000E1000000ED0200007C
:1000100000000000000000000000000000000000E0
:10002000000000000000000000000000E5000000EB
:100030000000000000000000E70000007F02000058
:10004000CB0200000B1E00000000000000000000BA
:1000500000000000000000000000000000000000A0
:100060000000000000000000000000000000000090
:1000700000000000EB00000000000000EB000000AA
:1000800079180000AB15000000000000000000001F
:100090000000000000000000000000000000000060
:1000A00000000000EB000000EB000000000000007A
:1000B000EB000000EB000000031D0000291D000004
:1000C00002480349014A034A70470000A801002082
:1000D000A8030020A8010020044800470448004766
:1000E000FEE7FEE7FEE7FEE7FEE7FEE70178000039
:1000F000F500000000F002F800F03EF80CA030C857
:10010000083824182D18A246671EAB4654465D4693
:10011000AC4201D100F030F87E460F3E0FCCB6461F
:100120000126334200D0FB1AA246AB4633431847A0
:100130003435000054350000103A02D378C878C135
:10014000FAD8520701D330C830C101D504680C6019
:10015000704700000023002400250026103A01D338
:1001600078C1FBD8520700D330C100D50B6070476F
:100170001FB51FBD10B510BD02F0EAFF1146FFF715
:10018000F7FF00F03FF803F002F803B4FFF7F2FFC7
:1001900003BC03F007F80000004800470900FF1FF8
:1001A00070B505460C46164602E00FCC0FC5103E52
:1001B000102EFAD2082E02D303CC03C5083E042E1B
:1001C00007D301CC01C5361F03E021782970641CD8
:1001D0006D1C761EF9D270BD10B54D484D490860B2
:1001E00000204D4988604A483E304A4988600846A8
:1001F00000684749491C084346490860192000F037
:1002000080F810BD02F0D9FE01F03AFD00F086FB47
:1002100000F09AFB00F065FA01F0DCF901F06EF9EC
:10022000FFF7DAFF22E03D483A49C8603C480078D1
:10023000030002F0BEFF0604070D10130A1600F0BB
:10024000E2FA12E000F008FB0FE000F08DFD0CE098
:1002500001F048F809E000F040FD06E000F015FA72
:1002600003E000202E49087000BF00BFDBE72D48E7
:100270002D494861FF2088610720086170472B489D
:100280000078002815D02A48C06A8007C00F0028CF
:1002900003D00020274908800BE026480088401C36
:1002A00024490880084600885A2802D100201F49A6
:1002B0000870704710B502201D498862002000F0C8
:1002C00020F804201A49086310BD00200121814054
:1002D000194A116000BF1648C06A002802D00120E8
:1002E0001249087003201249C862704700BFBFF36B
:1002F0004F8F12481249C860BFF34F8F00BF00BF35
:10030000FEE7C206D20E012191400E4A11607047ED
:100310000000FA5A0000014000E00540AA55FA5AD0
:100320002C000020FF52070000E000E084000020C5
:10033000000006408600002080E200E00400FA058C
:1003400000ED00E000E100E0E94B1870E94B1970A6
:10035000E94B1A707047E949E94A1278895CE44A26
:10036000127851430846C917090F09180911E54ABF
:100370001162E249E24A1278895CDE4A12785143FE
:100380000846C917090F09180911DE4A5162DB49ED
:10039000DB4A1278895CD84A127851430846C9175B
:1003A000090F09180911D74A9162704700B5FFF784
:1003B000D2FFFF2211461046FFF7C6FF00BD30B541
:1003C0000478002C04D00478CF4D2D78641B047081
:1003D0000C789C4205D00C78CB4D2D7864190C70AC
:1003E00007E01478641C14701478032C01D10024E5
:1003F000147030BD00B5FFF7AEFFC4480078002888
:1004000004D0012809D0022815D10DE0FF23BF4AEE
:10041000B849B748FFF7D3FF0EE0FF23BB4AB64900
:10042000B448FFF7CCFF07E0FF23B84AB049B24811
:10043000FFF7C5FF00E000BD00BF00BFFBE700B550
:10044000A9B0A022B24901A8FFF7AAFEFFF783FFD7
:10045000B04800688021084000282DD0AD480068D1
:100460008843AC490860AC48007800281DD100F0F2
:1004700063F9AA4800780007800EA949085CA949D9
:10048000C870A64800780007800EA549085A0004E5
:10049000000EA4490871A14800780007800EA04909
:1004A00008580002000E9F49487101209A490870BF
:1004B0004F209649087042E09448007800283EDDBD
:1004C0009848C07891490978490001AA515A48438F
:1004D0008003000E86490870924800798B4909789C
:1004E0004900515A48438003000E824908708D48E4
:1004F0004079864909784900515A48438003000EE3
:100500007D49087081480078401E8049087078480D
:100510000078002808D177480078002804D1764870
:100520000078002800D1087078480078282806DA7A
:1005300079480078012802D100207749087029B055
:1005400000BD10B571480078842822DA7548C0785B
:1005500075496E4A1278895C4843001264490870F4
:10056000704800797049694A1278895C48430012E2
:10057000604908706B48407964490A780978491CD9
:10058000624B19706849895C484300125A490870E7
:1005900020E000205D49087000F0CEF85F48007848
:1005A0000007800E5E49085C5E49C8705B480078B1
:1005B0000007800E5A49085A0004000E5949087174
:1005C000564800780007800E554908580002000E72
:1005D0005449487110BD10B5FFF7BDFEFFF7B1FFDC
:1005E00010BD1E2051490870704750204F490870B7
:1005F000FF203F4908700520434908700020434907
:100600000870704714204949087043480078002852
:1006100007D13E4908703849087036490870344996
:100620000870704700203F49C8700871FF2048716A
:10063000704700B51E203D490870002033490870FE
:10064000FFF7F0FF00BD00B500202B4908702949D5
:1006500008702749087036480078012806D002281B
:100660000DD0032805D004280CD105E0FFF7E1FFE9
:1006700009E0FFF7C7FF06E0FFF7B7FF03E0FFF76A
:10068000B0FF00E000BF00BF00BD10B521480078FA
:10069000C007C00F002807D01E480068400840006F
:1006A0001C490860FFF7CFFF21480078012806D0D9
:1006B00002280DD0032805D004280CD105E0FFF74F
:1006C0008AFF09E0FFF7BBFE06E0FFF793FE03E0B9
:1006D000FFF76CFE00E000BF00BF01201549087065
:1006E00010BD00B5FFF781FF04201149087000BD5F
:1006F00023000020240000202500002034330000C7
:1007000027000020002000401200002026000020CA
:10071000D03100002800002011000020000000203F
:10072000703200001C000020B032000010000020D9
:10073000220000202C00002019480068194909688F
:100740004018194908600EE015480068154908600E
:100750001548006812490860084600681149096890
:10076000401811490860104800780007000F0C4934
:1007700009780907090F8842E6D00B48007800077E
:10078000000F084909780907090F8842DCD004489E
:10079000006804490860044800680149086070471F
:1007A00004000020080000200000002010B500F028
:1007B00008FD00F0D5FC022002F08EFB00F02EFDBB
:1007C000B6213B2000F07EFF322002F08DFB4C482A
:1007D000406A042108434A494862012080070068B2
:1007E0004008400001218907086046480068400829
:1007F0004000444908602A2042498031486142480B
:100800004249086010BD10B5FFF796FF40480069E7
:1008100002210840002811D0FFF7C8FF01F0C2FBF9
:100820003B488068C007C00F002814D000F066FE67
:1008300000F05EFC0120374908700CE03448806805
:10084000C007C00F002806D000F058FE00F050FC92
:1008500001203049087010BD10B52D4800690221F3
:100860000840002805D12A488068C007C00F00282A
:1008700003D100202749087010BD274800682021B7
:100880000840002808D024480068884322490860AE
:100890000520204908702CE01F480078C007C00FD1
:1008A000002809D01C480068400840001A49086028
:1008B0000220184908701CE0174800680821084009
:1008C000002808D0144800688843134908600320B2
:1008D000104908700DE010480068102108400028F9
:1008E00007D00D48006888430B4908600420094977
:1008F000087001F06DF801F0C5F800BFBCE700001A
:1009000000600440002000400000FA5A000001404E
:10091000D80000202C000020340000200720F749D8
:100920004860002088600860F54948608860F549A3
:1009300048608860F44948608860F1484068042154
:100940000843EF494860704710B50022EF4B1A701A
:10095000EF4B1A700122EF4B1A60EF4B1A60002226
:10096000EE4B1A60EE4B1A6000200CE0002106E00E
:100970000022C300EB4C1B195A544A1CD1B208295F
:10098000F6DB421CD0B20128F0DB0022E64B1A70E5
:100990005A70E64B1A70002004E00022E44B1A540F
:1009A000421CD0B20728F8DB0022E24B1A70E24A60
:1009B000126880239A43E04B1A600022DF4B1A70C2
:1009C00010BD70B506460D46F4B2002C00D170BDC6
:1009D000502C0FDB522C04D12946012000F0A9FB3A
:1009E00023E0512C21D0552C1FD1002D1DD100F01A
:1009F0008DFB1AE0002D0CD1CD4800782043CC4966
:100A00000870C6480068012189050843C349086089
:100A10000BE0C7480078A043C5490870BF4800688C
:100A2000012189050843BD49086000BFCFE710B523
:100A3000C3480478C348007800280ED1B84800683D
:100A4000012149038843B64908600020BD49087068
:100A5000BB490870BC4908701FE0BB480078C0075C
:100A6000C00F00280AD000212046FFF7AAFFB64891
:100A7000007801214840B44908700EE00221204668
:100A8000FFF79FFFB048007801214840AE49087049
:100A9000AC480078401EAB49087000209C490870A3
:100AA00001209A49087010BD70B504460D466000DB
:100AB000A6490E5C29463046FFF783FF70BDF8B5A6
:100AC00098480090002543E0E90000980C180026A3
:100AD0003AE0207840210840002801D1641C31E030
:100AE000E8008019C7B220783021084000280CD1D6
:100AF000207840210840002807D0207888432070C3
:100B000002213846FFF7D0FF1AE020783021084054
:100B1000202815D1207840210840002810D02078C6
:100B2000884320708A480078032805D182480068ED
:100B3000802108438049086000213846FFF7B4FF50
:100B4000641C00BF701CC6B2082EC2DB681CC5B294
:100B5000012DB9DB724800680121490308400028D3
:100B600003D002206A49087002E00020684908703A
:100B7000012066490870F8BD30B503460A46DC001E
:100B8000684D6019002146E0047830252C40002C87
:100B900006D0102C0CD0202C1DD0302C36D122E0C9
:100BA00001248C401440002C01D0152404702EE048
:100BB00001248C401440002C0AD00478641E047078
:100BC00004782407240F002C04D16024047001E071
:100BD000002404701BE001248C401440002C01D13F
:100BE0003824047013E001248C401440002C02D0FF
:100BF0002024047009E00478641E0470047824073B
:100C0000240F002C01D14024047000E000BF00BF7D
:100C1000401C4C1CE1B20829B6DB30BD08B5FF20F2
:100C2000009036480068012109030840002804D1DB
:100C3000684600784108490000913048006810215A
:100C40000840002804D169460878022188430090B2
:100C50002A48006820210840002804D16946087805
:100C6000042188430090254800680121890208403A
:100C7000002804D1694608780821884300901F485D
:100C800000680121C9020840002804D1694608789B
:100C90001021884300901948006801214903084049
:100CA000002804D169460878202188430090144820
:100CB0000068C007C00F002804D1694608784021A9
:100CC0008843009068460078C043C1B20020FFF717
:100CD00053FF01200E49087008BD10B50C4800787C
:100CE000002804D0012805D0022836D132E0FFF7D1
:100CF00095FF36E0FFF7E3FE33E0000000400440DC
:100D0000006004400080044000A004402C0000204B
:100D10002D000020040000200800002030000020EA
:100D2000340000203B0000204A0000204C0000203E
:100D3000430000205800002028000020110000205F
:100D4000380000203A000020390000207A330000EB
:100D500022000020FFF76BFE03E00020A549087089
:100D600000BF00BF10BD704710B5A34800788008D1
:100D70008000A1490870A14800680121890308404A
:100D8000002805D09C480078012108439A49087042
:100D90009A4800680121C9030840002805D09648F8
:100DA000007802210843944908709348007880072E
:100DB000800F002806D0012842D002286DD00328D9
:100DC00075D198E08E4800780C21084004282DD079
:100DD0008B4800788007800F002827D18948007849
:100DE0000007000F002821D086480078401E854962
:100DF0000870084600780007000F002816D1084642
:100E0000007820210840002810D17E48007808434F
:100E10007C4908707A4800780C218843784908702A
:100E20000846007804210843754908707448007822
:100E300080088000724908700846007808709EE0BB
:100E40006F4800780C210840042803D188206D49A0
:100E5000087015E06A4800780C210840082803D182
:100E60004820684908700BE06648007800090001D6
:100E700064490870084600780821084361490870F1
:100E80005F480078800880005D4908700846007857
:100E9000012108435A49087071E0594800780C2133
:100EA0000840042804D148205649087016E063E041
:100EB000534800780C210840082803D18820514964
:100EC00008700BE04F480078000900014D49087098
:100ED00008460078082108434A49087048480078C5
:100EE00080088000464908700846007802210843BF
:100EF0004349087043E0424800780C210840082824
:100F00002DD03F4800788007800F032827D13D4827
:100F100000780007000F002821D03A480078401ED2
:100F200038490870084600780007000F002816D1DD
:100F30000846007820210840002810D13148007868
:100F40000843304908702E4800780C2188432C490A
:100F50000870084600780821084329490870284885
:100F60000078800880002649087008460078032130
:100F700008432349087002E000F096F800BF00BF64
:100F8000204800782021084000282FD01D480078F4
:100F900088431C49087008460078802108400028D2
:100FA0000FD0184800788843164908700120164968
:100FB00048711648006801218905084313490860F3
:100FC00014E0104800784021084000280ED00D4859
:100FD000007888430B490870FF200B4948710B4883
:100FE000006801218905084308490860012001497A
:100FF000087010BD2C00002060000020004004405C
:10100000610000206200002043000020300000202A
:1010100010B500F007FC10BD10B5A548806A04218A
:101020000843A3498862042001F056FFA048406AA3
:10103000042108439E49486202209E4908705A21B3
:101040003A2000F03FFB052001F046FF4A211B201B
:1010500000F038FB052001F03FFF3921182000F097
:1010600031FB322001F040FF052001F035FF10BDBB
:10107000914880680321090788438F4988600846A2
:10108000806880008008886070478B484068012134
:101090008903884388494860084640680121C9039C
:1010A000884385494860704710B50024FFF7EDFF7D
:1010B000FFF7DEFF042001F00FFF7F4800680121E9
:1010C00089030840002801D0012004437A480068C1
:1010D0000121C9030840002801D0022004437748B9
:1010E000047077480078082108437549087010BDDE
:1010F00010B5FFF7D9FFFFF78FFFFFF789FF7148A2
:101100000068714908436F49086010BD10B569480F
:101110000078401CC0B267490870032801DD002038
:1011200008706A48634A1278815C1B2000F0CAFA92
:1011300010BD002913D1664A126801235B031A40CF
:10114000002A0CD1624A12681A43614B1A600322CA
:10115000604B1A70604A10700122604B1A70704721
:10116000554880680321090688435349886008462A
:1011700080680321090288434F49886008468068D7
:101180000321890288434C4988600846806803210E
:101190000905884348498860084680680321890515
:1011A000884345498860084680680321890688434A
:1011B000414988603E488068800880003C498860DA
:1011C00070473D4840680121090388433A49486017
:1011D00008464068102188433749486008464068FF
:1011E00020218843344948600846406809158843EF
:1011F0003149486008464068C91488432E49486010
:10120000084640680121490388432B494860284823
:1012100040684008400026494860704730480078E0
:10122000800880002E490870234800680121890346
:10123000084000280CD02048406888431E49486078
:10124000084680680321090788431B4988600DE030
:101250001948406801218903084317494860084636
:101260000068012189038843134908601248006817
:101270000121C903084000280AD00F48406888436C
:101280000D494860084680688000800888600DE04D
:10129000094840680121C9030843074948600846D6
:1012A00000680121C90388430349086070470000B2
:1012B0000060044064000020004004406100002001
:1012C00062000020000001400100FA5A8A33000049
:1012D000340000203A0000203800002039000020AF
:1012E0006000002010B5002000F00FFA7E49087061
:1012F00008460078432803D000207C49087010BDC0
:10130000162000F038FA784800788021084000283C
:101310001BD075488078764948707348C0788870CB
:101320007148407900027049097908430446E04356
:10133000401C84B26E49CC70201208716D48006860
:101340000121890508436B4908600120674908703D
:1013500000BFD4E7F8B504460D4620020121C903B9
:101360000843284307466448806A042108436249C9
:10137000886208464068102108435F4948600120A0
:1013800001F0C9FD002627E05B48806A0821084378
:10139000594988620120C0033840002806D0084619
:1013A000406A102108435449486205E05248806A67
:1013B00010210843504988627804070C012001F08D
:1013C000AAFD4D48406A082108434B494862012064
:1013D00001F0A1FD701CC6B2102ED5DB012001F07A
:1013E0009AFD4548406810218843434948600846B3
:1013F000406A0421084340494862F8BDF8B50546F3
:101400002F463D484068102108433B494860084644
:10141000806A0421084338498862012001F07BFD7D
:10142000002426E03448806A082108433249886253
:1014300080203840002806D00846406A1021084322
:101440002D49486205E02C48806A102108432A494A
:1014500088627806070E012001F05DFD2648406A8B
:101460000821084324494862012001F054FD601C12
:10147000C4B2082CD6DB042001F02EFD1E484068C3
:10148000102188431C494860022001F03BFD0024E4
:101490001DE01948806A0821084317498862012025
:1014A00001F039FD1448406A082108431249486296
:1014B0007006060E08460068C006C00F002801D05E
:1014C00001200643012001F026FD601CC4B2082C57
:1014D000DFDB012001F01FFD0748406A04210843BB
:1014E000054948623046F8BDA80000202C000020C5
:1014F00043000020300000200060044031480068B4
:101500008021884380302F4908602F202E49886031
:10151000FF202D494031C86300202B4908624862F2
:1015200088620720284980310862C86108464069FE
:1015300080088000401C4861084640690C218843AF
:10154000001D2149803148610846406930218843A7
:1015500010301D49803148611B48C0690915884316
:1015600040181949C8610846006802218843801C58
:101570001549086000BF144800688007C00F0028A4
:10158000F9D11148006840084000401C0E4908602D
:101590001120012181400D4A116000BF00BF0121CF
:1015A00081400B4A116000BF7047704706480068D1
:1015B00040084000044908600020C04302498031CF
:1015C0008862704700E005400020004080E200E0B3
:1015D00000E100E08F4800680121090388434018BA
:1015E0008C4908608C4800680F2109028843072154
:1015F00009024018884908600846006808218843A5
:1016000085490860084600680221884382490860CD
:1016100008460068042188437F49086008468068BE
:10162000000A0002173088600620486008460068FB
:101630000121890488434018774908607748406A47
:10164000042108437549486273480068C0218843F3
:10165000C0307149086071484068042108436F49EF
:1016600048606D48006840084000401C6A490860B6
:10167000704768480068012109030843654908600C
:101680006548006840084000401C634908600846FF
:101690000068C0218843C0305F49086070475E48D9
:1016A0000068400840005C4908605A480068891496
:1016B00088435849086070470F20574988610020C7
:1016C0000861704708B5554A926A04231A43534B80
:1016D0009A6280220243504BDA611A46D16100BF00
:1016E0004D4AD268D206D20F002AF9D14A4AD269AD
:1016F000D3B20093484AD269D3B20093474A526AA0
:1017000004231A43454B5A6208BD38B50446434882
:10171000806A04210843414988623F48C46100BF90
:101720003D48C068C006C00F0028F9D13A48C069DA
:10173000C0B20090042001F0CFFBFF203649C86101
:1017400000BF3548C068C006C00F0028F9D100BFEF
:101750003148C068042108400028F9D12E48C069EA
:10176000C1B200912D48406A042108432B494862C8
:101770006846007838BD38B5044627480068C0215F
:101780008843C030244908602448806A0421084303
:10179000224988622048C46100BF1F48C068C00653
:1017A000C00F0028F9D11C48C069C0B200900420C5
:1017B00001F092FBFF201849C861C861C861C86187
:1017C000C861C86100BF1448C068C006C00F0028C7
:1017D000F9D100BF1048C068042108400028F9D1A1
:1017E0000D48C0690E4908700B48C06948700A4826
:1017F000C06988700848C069C8700748C069087126
:101800000548C06948710548406A042108430349F6
:10181000486238BD00E0054000C00140006004405F
:10182000A80000205D4800684021884340305B49A3
:1018300008605B4801218907086203204861022093
:10184000086000BF012080070068022108400028CE
:10185000F8D1480700680121084389070860102073
:10186000012181404F4A116000BF00BF012181402A
:101870004D4A116000BF704701204C4988624C48B6
:101880000068202108434A4908604A480078401C03
:101890004849087048480078401C47490870454846
:1018A0000078042814D1002042490870404800689C
:1018B000012108433E4908600846006802210843A8
:1018C0003B490860084600684021084338490860E1
:1018D000374800680221084000285DD0344800687D
:1018E00088433349086035480078401C3349087004
:1018F00033480078401C3249087032480078401C58
:101900003049087030480088401C2F4908802B4817
:10191000007802280ED10020284908702448006869
:1019200004210843224908600846006880210843D2
:101930001F4908602248007804280FD10020204960
:1019400008701B48006808210843194908600846C8
:101950000068FF21013108431549086019480078E3
:10196000082809D100201749087011480068012192
:10197000490208430E4908601448007808301249AB
:101980000988884208DC00200F4908800848006860
:1019900010210843064908607047000000E0054038
:1019A000E02E000080E200E000E100E08000004066
:1019B0003400002058000020590000205A00002068
:1019C0005B0000205C0000205E0000201000002072
:1019D00070B5A14DA048243086682868C00FC007A4
:1019E000002801D1022070BD2868400F4007012166
:1019F000C907884244D19948407800283BD198488B
:101A00000068490A0840002833D095480068884398
:101A1000934908609348C0780006924A927812046D
:101A20001043904A5278120210438E4A12781043A3
:101A30000146304600F0B3FB8A4880790004894AA9
:101A4000527912021043874A127910430146301D21
:101A500000F0A5FB012404E0002082490855601C29
:101A6000C4B2072CF8DB0721012000F049FB00205D
:101A7000B9E70120B7E7012000F0A4F90320B2E79D
:101A80000120B0E770B5744C241D73482430C5683C
:101A90002068C00FC007002801D1022070BD206857
:101AA000400F40070121C90788427CD16B488078EC
:101AB00000287AD16A48006804210840002813D021
:101AC00067480068884366490860674840780004B2
:101AD000654A127812021043411C284600F05FFB51
:101AE0000321022000F00CFB5D4800680221084041
:101AF00000280FD05A4800688843594908605B485D
:101B000000780002811C284600F049FB02210846AB
:101B100000F0F6FA52480078C007C00F002826D01F
:101B20004F480068400840004D49086050484078E0
:101B300000064F4A127812021043C11C284600F0DA
:101B40002EFB4B4840790006494A12791204104393
:101B5000474AD27812021043454A92781043014610
:101B6000281D00F01CFB0821022000F0C9FA3C48A7
:101B7000006808210840002813D0394800688843CD
:101B8000374908603B48407800043A4A127812020C
:101B90001043411D284600F002FB0421022000F002
:101BA000AFFA00207AE705E0FFE7022000F00AF92B
:101BB000032073E7012071E7FEB504460E46154683
:101BC0002548001FA1004018019001980068C00F2F
:101BD000C007002801D10220FEBD002C03D0042C38
:101BE00001D8402D01D90420F6E701980068400F84
:101BF00040070121C90788422BD11848005D002801
:101C000022D1A0001C494018019001980068A84208
:101C100001D20520E0E7601E8000184908580090B6
:101C2000002708E03168009800F0B9FA0098001D1C
:101C30000090361D7F1CA808B842F3D2E9B22046B6
:101C400000F05EFA0020C7E7204600F0BBF8032052
:101C5000C2E70120C0E700001CC005407000002062
:101C600030000020430000204A0000204C000020EB
:101C7000510000204D000020C4000020B4000020CE
:101C800070B500F04AFF01F002F9F7480068102132
:101C90000843F54908604020F44988608020C86006
:101CA000C0200861E0204861F14C40202060802085
:101CB0006060C020A060E020E060EE4C402020602A
:101CC000082060600920A0600820E0602061EA48E8
:101CD000E64940390860022048611F25ED063220A0
:101CE00001F002F9E14840380561E448DF49C86283
:101CF00040074862012000F0CCFA012000F0BAFA57
:101D000070BD10B51E2000F0C4FA0020C043DC49AD
:101D10000862DC480069012189040843D949086147
:101D20001E2000F0AEFA10BD10B51F2000F0B1FA71
:101D30000020C043D4490862D248006901218904C7
:101D40000843D04908611F2000F09BFA10BD10B570
:101D50000020CD49C860CD48086148610020C043DB
:101D60000862CA4888611F2000F093FA1F2000F023
:101D700081FA0020C249C860032008614861001F41
:101D80000862032088611E2000F083FA1E2000F004
:101D900071FA10BD0120C002B44940398860704713
:101DA00001208002B149403988607047012040021B
:101DB000AE49403988607047FF200130AB49403957
:101DC00088607047042800D97047A84A283A8300E1
:101DD000D118002808D1A54A403A526801231B06B1
:101DE0001A40002A00D0EFE7072252070A6000BF1E
:101DF000EAE710B5A648006801210843A449086035
:101E000001F0DBF800F081FA10BD10B597484038BA
:101E10004468A048954940398860002C02D1FFF7FA
:101E2000E8FF10BD01204007204000280ED0FFF73A
:101E3000E0FF00F05FFA012000062040002805D0F6
:101E4000022001F033F800F04FFDEAE720460121BF
:101E500089060840854940390968012292071140E6
:101E60000840002801D000F05BFAA00F800700288E
:101E700010D0E00FC007002804D0FFF7BAFF00F031
:101E80001BFA53E001208007204000284ED000F0CC
:101E90002AFA4BE01F20C0042040002825D0012052
:101EA000C0052040002802D000F01EFD3EE00120C9
:101EB00080052040002802D000F06FFD36E00120B0
:101EC00040052040002802D000F0BFFD2EE0032096
:101ED000C0042040002829D00320C00463494039B1
:101EE00088600020FFF76EFF20E00F2000022040F6
:101EF00000281BD0FF2001302040002801D0FFF730
:101F00005BFF012040022040002801D0FFF74EFF78
:101F1000012080022040002801D0FFF741FF01206E
:101F2000C0022040002801D0FFF734FF00BF78E74F
:101F3000002000E0401C58498842FBD370471E2017
:101F400000BF0146401E0029FBD1704700B50620A6
:101F5000464940394861FFF7F2FF052043494039BF
:101F60004861FFF7E5FF4148403840690421884354
:101F70003E494039486100BD01204549C860002004
:101F8000086146484649086000BF4148C0681021C2
:101F900008401028F9D13E480068424908403C49B1
:101FA0000860704710B537480069022188433549F9
:101FB00008613D480078012800D110BD00240BE0E5
:101FC0003A483B49C860294840384068890308407E
:101FD000002800D1F1E7641C36488442F0D323483E
:101FE00040384068012189070840002800D1E4E713
:101FF0001E48403800690921C90688431B494039F9
:1020000008612048006980210840002801D0FFF7BE
:102010009EFE0A2000F060FFFFF7AEFF1348403835
:102020004068012189070840002802D1FFF7E1FE3E
:10203000C3E704202049086030BFFFF7DAFE1148EB
:1020400000691E49084088423AD10E4800690121C2
:10205000890488430B4908610846806801282FD10C
:10206000FFF774FFA9E7000000E0054040C005400D
:10207000B4000020C4000020100000B004400000A4
:1020800000600440D800002000400440303C0000C4
:1020900000000640FFFFFBFE145000000000FA5A4B
:1020A00000200640FEFFFF0F84000020AA55FA5AC8
:1020B00000000140E075090040200340800004005A
:1020C00000BF7AE77649C96B012282409143744A86
:1020D000D1637047042800D97047714A18328300D1
:1020E000D11800220A6000BFF6E7042800D9704723
:1020F0006B4A18328300D11812070A6000BFF6E756
:1021000010B5042800D910BD654B183384001A1986
:1021100005235B070B43136000BFF4E76049803180
:10212000486002215E4A8032D16000BF5C49803144
:10213000C968022211400029F8D1594980318968C3
:10214000584A1160704770B506460B46402B10D2B6
:10215000701E800054490858990844182046FFF71B
:10216000DDFF9807C10E4F480068C840C5B2284639
:1021700070BD0020FCE770B506460B46102B0CD254
:10218000701E800048490858990044182046FFF7FF
:10219000C5FF44480568284670BD0020FCE7404A5A
:1021A00080325060916001223D4B8033DA6000BF85
:1021B0003B4A8032D268D207D20F002AF8D170474A
:1021C000F8B506460C461746402C1BD2701E800000
:1021D00035490858A108401800900098FFF79EFF65
:1021E00030480568A007C10EFF208840294681437A
:1021F0000D46A007C10E3846884005432946009881
:10220000FFF7CDFFF8BDF0B505460C461646102C7D
:1022100009D2681E800024490858A1004718314699
:102220003846FFF7BCFFF0BD1D49403188630221ED
:102230001B4A8032116000BF1949803109680222AF
:1022400011400029F8D116494031C96B174A116075
:102250007047134A40329063D1630122104B8033A0
:102260001A6000BF0E4A80321268D207D20F002ACD
:10227000F8D17047C206D20E012191400C4A11607C
:102280007047C206D20E01219140094A8032116086
:102290007047C206D20E01219140064A1160704774
:1022A00000C005409C000020B400002094000020E5
:1022B00000E100E080E200E010B50020C043FE49EC
:1022C00088600120FD49086100208860FA49C860E3
:1022D000FFF778FD012403E02046FFF7FBFE641CB6
:1022E000042CF9D910BDF548006902210843F349CF
:1022F00008617047F148006904210843EF4908610B
:1023000001204007EC4988607047EB4800690921CB
:10231000C9060843E8490861012040068860704703
:1023200001208006E4498860704770B5E348806802
:10233000012823D1E24D002402E000202855641C2E
:10234000042CFAD9DD480079012817DCDB488078B5
:10235000002813D1D9490979DA4A5054D749087964
:10236000FFF7B0FED5480069012109040843D349AD
:10237000086100210846FFF7C3FE70BD0020FFF78B
:1023800021FD00BFF9E710B5CC48806801281BD1BA
:10239000CA480078812817D1C8480079012813DC81
:1023A000C6480079C7490C5C21460020FFF751FF61
:1023B000C24800690121C9030843C04908610121DD
:1023C0000020FFF79DFE10BD0020FFF7FBFC00BFC3
:1023D000F9E770B5BA4DB9480069202108400028D6
:1023E00051D0B648807800281DD1B449886008468D
:1023F000006910210843B1490861012405E001206A
:1024000028552046FFF766FE641C042CF7D9AB481C
:102410000069012109040843A84908610021084610
:10242000FFF76EFE70BDA548807801282BD1A34927
:1024300088600846006910218843A049086100248B
:1024400013E000202855002C0ED02046FFF74DFE4B
:1024500099480069611EC840C007C00F002803D01A
:1024600000212046FFF74CFE641C022CE9D993485A
:1024700000690121090408439049086100210846C8
:10248000FFF73EFECEE70020FFF79CFC00BFC9E748
:1024900010B58A4881680020FFF7DBFE8748806816
:1024A000012807D1012403E02046FFF71EFE641C2B
:1024B000022CF9D900208449086080480069032172
:1024C000890308437D49086101210020FFF718FEB8
:1024D00010BD10B50020FFF775FC10BDF0B5044627
:1024E0001D062D0E2D061604FF273F043E403543E2
:1024F0000E023F123E403543E6B235432846F0BD5A
:10250000F8B5724804686D48C0886F490968884208
:1025100003D26A48C0886C4908606B48006800288C
:1025200004D100210846FFF7EBFD2DE000250DE06A
:10253000E378A27861782078FFF7D0FF0646A800FC
:102540003146FFF786FE241D681CC5B2102DEFDB57
:102550005D48006840280ED340210020FFF7D0FDE1
:102560005A48006840305949086057480068403868
:102570005549086008E054480068C1B20020FFF7E0
:10258000BFFD002050490860F8BD70B5002500244B
:1025900028E04A48C1780C2060434D4A105C8142D3
:1025A0001FD1464801790C20604380184078814251
:1025B00017D1424881780C2060438018807881428E
:1025C0000FD10C2060431146401880883E490860B6
:1025D0000C2060431146401880683C490860012582
:1025E00002E0641C102CD4D300BF002D03D10020C6
:1025F000FFF7E8FB70BD314800690121C9030843BA
:102600002E490861FFF77CFF00BFF3E710B52B48A8
:102610000069202188432949086108460069402152
:1026200008432649086108468078002805D00846F6
:1026300000692021084321490861204880781F490A
:102640000873084600690121090408431B49086111
:1026500000210846FFF754FD10BD70B517480078FB
:1026600045066D0E1548007880210840002802D0EC
:102670000020FFF7A7FB002D0ED11048807801281D
:1026800040D10E480069134908430C4908610021F4
:102690000846FFF735FD70BD022D30D10748807820
:1026A00000282FD1054800794406640E002C29D05B
:1026B000022C27D801480FE000C00540D8000020B8
:1026C00070000020800000207C00002078000020A6
:1026D000B0350000800101008068012812D1FC495A
:1026E00008552046FFF76EFBFA480069E9030843E6
:1026F000F849086100210846FFF702FDCBE70020FA
:10270000FFF760FB00BFC6E770B5F24800784506EA
:102710006D0EF048007880210840002802D000208B
:10272000FFF750FB002D14D1EA488078012845D1ED
:10273000E848006980218843E64908610846006945
:10274000E5490843E349086100210846FFF7D8FC42
:1027500070BD022D32D1DF48807800282ED1DD48AF
:1027600000794406640E002C13D1DA480069202158
:102770000840002822D00020D5490870D5480069BB
:10278000E9030843D349086100210846FFF7B8FC74
:10279000DEE7022C12D8CF48806801280ED1002035
:1027A000CB490855CB480069012109040843C949B0
:1027B000086100210846FFF7A3FCC9E700BFC7E78F
:1027C00070B5C44800784406640EC2480078802181
:1027D0000840802802D00020FFF7F4FA002C1AD11C
:1027E000BC48006980210840002804D00221002054
:1027F000FFF72FFD03E000210846FFF72AFDB5484B
:1028000000690121C9030843B2490861022100207F
:10281000FFF776FC70BD012C1AD1AE488068012804
:102820002FD1AC48407900282BD1AA480079012843
:1028300027DC00210846FFF70CFDA6480069E103EC
:102840000843A449086102210020FFF759FCE1E791
:10285000022C16D19F48007945066D0E022D10D826
:102860009B48465D31460020FFF7F3FC994800691C
:10287000A10308439749086102210020FFF740FCAB
:10288000C8E700BFC6E710B592484078030000F0E3
:1028900090FC0C070A250D25101316191C1F222564
:1028A000FFF78EFF1EE0FFF72FFF1BE0FFF7D5FEBF
:1028B00018E0FFF7ABFE15E0FFF767FE12E0FFF749
:1028C00008FE0FE0FFF7E4FD0CE0FFF782FD09E0F2
:1028D000FFF759FD06E0FFF728FD03E00020FFF7B2
:1028E00071FA00BF00BF10BD1CB53320C0047B4986
:1028F00088600020FFF7F9FB7848406801218904CF
:102900000840002840D1734800690321C903884367
:10291000704908610020FFF787FC7148006801904A
:102920000420FFF781FC6E48006800906949019817
:102930000870FF21090201980840000A65494870A3
:10294000FF21090401980840000C62498870019831
:10295000000EC87000980871FF2109020098084015
:10296000000A5C4948710098000CC8800846047849
:1029700060210C40002C02D1FFF785FF1CBD202CEC
:1029800006D100F04FFAF9E701208004534988602E
:102990000020FFF717FA00BFF0E710B5012080050F
:1029A0004E4988604F48807C02281AD100204D494A
:1029B0008874084640694C4988420FD1494880696B
:1029C0004A4988420AD1002404E0A0000021FFF710
:1029D00040FC641C402CF8D3FDF7DEFB0420414989
:1029E00088743C48006940210840002813D03948C9
:1029F00000698843374908610846007B3749C86049
:102A00000020FFF7DFF933480069012109048843FA
:102A10003049086110BD2F48C088002810D02D48CB
:102A20000069012109040840002809D1FFF768FD69
:102A30002848006901210904884326490861E9E71B
:102A40000020FFF7BFF900BFE4E710B50120400503
:102A5000224988602348807C012811D1002409E0A4
:102A6000A000FFF7E1FB1E480168A2001D481430DA
:102A70008150641C102CF3D302201A4988741BE087
:102A80001848406D012149020840002814D015481B
:102A9000406D8843134948650020FFF7C5FB104887
:102AA00000680004000E0F4908700846406D0121BF
:102AB000490308430B494865064800690121C903D9
:102AC0000840002814D100210846FFF719FB1CE03C
:102AD00070000020D80000200001010000C0054067
:102AE00094000020EC000020AA55A55AFF0033CC2A
:102AF0001B484068012109060840002805D11848F4
:102B00008069C90008431649886116480069012197
:102B1000C90388431349086110BD002003E0002168
:102B2000114A1154401C0528F9D3002003E000216C
:102B30000E4A1154401C0428F9D30021094A11708F
:102B400051709170D17011715171D1809160117378
:102B500011460969012252041143024A116170476A
:102B600000C00540D8000020700000208000002038
:102B700010B5CB480078212825D1CA48406D0121E5
:102B800009030843C7494865C548007901281ADC8C
:102B9000C3488078002806D10846406D0321890289
:102BA0008843C0494865BE488078BE494874BC48DF
:102BB0000069012109040843B94908610021084658
:102BC000FFF79EFA10BD0020FFF7FCF800BFF9E701
:102BD00010B5B3480078212819D1B1480069012106
:102BE00009040843AE490861AE48406D0121C9029D
:102BF0000843AC494865AA480079012807DCA84881
:102C0000C078087400210846FFF77AFA10BD00204A
:102C1000FFF7D8F800BFF9E710B5A1480069012116
:102C2000090408439E4908619E48406D01214902FC
:102C300008439C49486500210846FFF761FA10BD2A
:102C400010B501209749887400210846FFF758FA0B
:102C500010BD10B592480078212811D19048007914
:102C600000280DD18E48C078022802D1FFF7D4FF8A
:102C700010BD8B48C078032811D1FFF7E1FFF7E7BB
:102C80008748007821280AD185480079012806D193
:102C90008348C078022802D1FFF7BEFFE8E7002092
:102CA000FFF790F800BFE3E710B57D480078A12852
:102CB0001ED17C48406D012109030840002802D143
:102CC00001207849487476480079012810DC75485D
:102CD000417C0020FFF7BDFA714800690121C9035A
:102CE00008436F49086101210020FFF709FA10BD70
:102CF0000020FFF767F800BFF9E710B568480078D3
:102D0000A1281CD16748406D0121C90208436549CB
:102D10004865634800790043002810D10846017CCB
:102D20000020FFF796FA5E4800690121C9030843B5
:102D30005B49086101210020FFF7E2F910BD002086
:102D4000FFF740F800BFF9E710B5002056490860CA
:102D5000534800690121C90308435149086105210D
:102D60000020FFF7CDF910BD10B500210846FFF790
:102D7000C7F910BD10B54B4801780020FFF769FA7C
:102D8000474800690121C9030843454908610121F9
:102D90000020FFF7B5F910BD10B5002042490860CA
:102DA0003F4800690121C90308433D4908610821E2
:102DB0000020FFF7A5F910BD10B539480078A1280B
:102DC0002BD137488068012827D135480079002861
:102DD00014D13348C078012802D1FFF7DDFF10BDC0
:102DE0002F48C078022802D1FFF7C4FFF7E72C482C
:102DF000C078032811D1FFF7B7FFF0E72848007922
:102E000001280AD12748407C012806D12448C078EF
:102E1000012802D1FFF798FFE1E70020FEF7D2FF7B
:102E200000BFDCE710B51E484078030000F0C1F990
:102E30000C19070A0D191919191910131619FFF78A
:102E4000BBFF12E0FFF759FF0FE0FFF72DFF0CE08B
:102E5000FFF7FFFE09E0FFF7BBFE06E0FFF788FE85
:102E600003E00020FEF7AEFF00BF00BF10BD10B5AD
:102E700000200D4908600A4800690121C903084380
:102E80000749086105210020FFF73AF910BD7D20B0
:102E9000044908740120487400208874486570470C
:102EA000D8000020EC0000207C0000203C2148439A
:102EB00000BF0146401E0029FBD1704700B5034604
:102EC00005E019481949C8606420FFF7EFFF18466C
:102ED0005B1E0028F5D100BD3C21484300BF0146E0
:102EE000401E0029FBD1704700B5034605E00E489F
:102EF0000E49C8606420FFF7EFFF18465B1E0028EC
:102F0000F5D100BD3C214843400800BF0146401EAA
:102F10000029FBD170470621484300BF0146401EEF
:102F20000029FBD170470000AA55FA5A0000014061
:102F300010B52948C0684006400F002802D001287B
:102F400009D103E025482649086005E07D200002FC
:102F50002349086000E000BF00BF0020030000F02C
:102F600028F9080507090B0D0F11131501240EE0B0
:102F700002240CE004240AE0082408E0102406E0FF
:102F8000202404E0402402E0802400E000BF00BFD1
:102F900021461348006800F02BF8114908600846E4
:102FA00000681049884203D90F481049086003E0BF
:102FB0000D48401F0D49086010BD0B480B490860C3
:102FC000002005490861C86000BF0348C06870213F
:102FD00008400028F9D1704700000640006CDC0270
:102FE000A400002000366E010500FA5A00200640B9
:102FF000002203098B422CD3030A8B4211D30023F6
:103000009C464EE003460B433CD4002243088B42CF
:1030100031D303098B421CD3030A8B4201D394465C
:103020003FE0C3098B4201D3CB01C01A524183094F
:103030008B4201D38B01C01A524143098B4201D309
:103040004B01C01A524103098B4201D30B01C01A34
:103050005241C3088B4201D3CB00C01A52418308AE
:103060008B4201D38B00C01A524143088B4201D3DB
:103070004B00C01A5241411A00D20146524110463B
:1030800070475DE0CA0F00D04942031000D34042B0
:10309000534000229C4603098B422DD3030A8B42E6
:1030A00012D3FC22890112BA030A8B420CD3890184
:1030B00092118B4208D3890192118B4204D389016A
:1030C0003AD0921100E08909C3098B4201D3CB01A8
:1030D000C01A524183098B4201D38B01C01A52415D
:1030E00043098B4201D34B01C01A524103098B4261
:1030F00001D30B01C01A5241C3088B4201D3CB004C
:10310000C01A524183088B4201D38B00C01A52412E
:10311000D9D243088B4201D34B00C01A5241411A05
:1031200000D20146634652415B10104601D3404233
:10313000002B00D54942704763465B1000D34042E4
:1031400001B50020C046C04602BD704770477047B9
:10315000754600F023F8AE46050069465346C008A0
:10316000C000854618B020B5FCF7AAFF60BC002758
:103170004908B6460026C0C5C0C5C0C5C0C5C0C543
:10318000C0C5C0C5C0C5403D49008D467047044616
:10319000C046C0462046FCF7F8FF000000487047D4
:1031A0004401002001491820ABBEFEE726000200C2
:1031B000704730B47446641E2578641CAB4204D357
:1031C000635D5B00E31830BC18471D46F8E700005C
:1031D000000000000000030007000B000F001300B8
:1031E00017001B001F00230027002B002F003200B8
:1031F00037003A003E0046004E0056005E00650073
:103200006D0075007D0085008D0095009C00A40078
:10321000AC00BC00C400CF00DB00E700F300FE0000
:103220000A01160122012D013901490159016801E4
:10323000780188019701A701B701C601D601E6010F
:10324000EE010102150228025002630277028A028F
:103250009E02B202C502DA02EE02F8020C03230358
:103260003B03560372038D03A903C403DC0300046C
:10327000FF00000000FF00000000FF00FFFF000053
:10328000FF00FF0000FFFF000080FF0000FF800044
:10329000FF008000FF00FF00FFFF0000FF80000034
:1032A000FF808000FFFFFF00000000006050200052
:1032B00000000001020304050607080A0C0E1012A4
:1032C0001416181A1D202326292C2F3235393D417A
:1032D00045494D5155595E63686D72777C81868C86
:1032E00092989EA4AAB0B6BCC3CAD1D8DFE6EDF4CA
:1032F000FBFFFFFBF4EDE6DFD8D1CAC3BCB6B0AA32
:10330000A49E98928C86817C77726D68635E595515
:10331000514D4945413D3935322F2C292623201D59
:103320001A18161412100E0C0A08070605040302D8
:1033300001000000000001040810B500B600B7004D
:10334000CD00E000E200E300E400E500E900EA006F
:1033500052015301540183018A01210223022402F4
:103360002502260227022A02920194018301020209
:103370000302070218021A02B8000100020004004A
:10338000080010005200550000000B314A7E00007A
:103390001201000200000040450C12700101010200
:1033A000000105010902A1010901A1000509190196
:1033B0002905150025019505750181029501750303
:1033C000810105010930093116018026FF7F751042
:1033D0009502810609381581257F750895018106BA
:1033E000050C0A380295018106C0050C09001580FC
:1033F000257F95407508B102C0005700050C0901F2
:10340000A101850119002A3C021500263C02751015
:1034100095018100C005010980A10185021981295A
:10342000831500250195037501810295058101C071
:1034300005010906A1018503050719E029E7150023
:103440002501750195088102950175088101950591
:10345000750105081901290591029501750391016E
:1034600095057508150026FF00050719002AFF00BD
:103470008100C006A0FF0901A10185040902150011
:1034800026FF00957F7508B102C006FFFF0901A164
:103490000185050901150026FF00950375088102C5
:1034A000C000A500050C0901A10185011500250139
:1034B0009520750109B509B609B709CD09E009E2FA
:1034C00009E309E409E509E909EA0A52010A530195
:1034D0000A54010A55010A8A010A21020A23020A32
:1034E00024020A25020A26020A27020A2A020A924E
:1034F000010A94010A83010A02020A03020A07026E
:103500000A18020A1A0209B88102C005010980A13D
:103510000185021981298315002501750195038113
:1035200002750595018101C00600FF0901A1018511
:10353000031AF1002AF8001500250175089502818B
:1035400002C09E0009023B00020100A04B090400DA
:1035500000010301020009211101000122570007A7
:1035600005810308000109040100010301010009AC
:10357000211101000122A5000705820309000104B1
:103580000309040C0353004F004E00690058001655
:1035900003550053004200200044004500560049F6
:1035A00000430045000A03440045004D004F000061
:1035B0000100000012000000903300000200000033
:1035C0003B00000044350000030000000400000040
:1035D0007F35000003090000040000007F35000073
:1035E000030001000C000000833500000309010006
:1035F0000C000000833500000300020016000000EC
:103600008F35000003090200160000008F3500000E
:1036100005000000070000005F3500000500000005
:10362000070000005F3500002100000009000000D5
:103630005635000021010000090000006F35000030
:103640002200000057000000A23300002201000009
:10365000A5000000FC330000220200009E000000D4
:10366000A43400008436000000000020A800000000
:10367000380100002C370000A800002000030000E3
:1036800054010000000000000000000000000000E5
:10369000000000000000000000000000000000002A
:1036A0000000000000000000000000050000000015
:1036B000000000000000000000000000000000000A
:1036C00000000000000000000000000000000000FA
:1036D00000000000000000000000000000000000EA
:1036E00000000000000000000000000000000000DA
:1036F00000000000000000000000000000000000CA
:1037000000000000000000000000000000000000B9
:1037100000000000000000000000000000000000A9
:0C3720000000000000000000000000009D
:020000040000FA
:0477FC005555AAAA8B
:04000005000000F502
:00000001FF
